:020000040800F2
:10000000702B002045010008990A00080F02000823
:10001000950A0008E9060008FB110008000000002E
:100020000000000000000000000000006D0C00084F
:100030009908000800000000970100085D0E000804
:100040005F0100085F0100085F0100085F01000810
:100050005F0100085F0100085F0100085F01000800
:100060005F0100085F0100085F0100085F010008F0
:100070005F0100085F0100085F0100085F010008E0
:100080005F0100085F0100085F0100085F010008D0
:100090005F0100085F0100085F0100085F010008C0
:1000A0005F0100085F0100085F0100085F010008B0
:1000B0005F0100085F0100085F0100085F010008A0
:1000C0005F0100085F0100085F0100085F01000890
:1000D0005F010008A10F0008D10F000851100008AF
:1000E0005F0100085F0100085F0100085F01000870
:1000F0005F0100085F0100085F0100085F01000860
:100100005F0100085F0100085F0100085F0100084F
:100110005F0100085F0100085F0100085F0100083F
:100120005F0100085F0100085F0100085F0100082F
:10013000DFF80CD000F00EF900480047CF030008AC
:10014000702B00200648804706480047FEE7FEE780
:10015000FEE7FEE7FEE7FEE7FEE7FEE7FEE7FEE777
:100160006D0E000831010008EFF3108072B6704781
:1001700080F310887047334A1368012B04D04FF086
:1001800001031360304A1060304A116030484FF06C
:10019000805101607047EFF3108272B62948016800
:1001A00091B14FF0000101602748016829B1EFF3D8
:1001B000098121E9F00F0068016024490968096894
:1001C000B1E8F00F81F3098882F310884EF0040E35
:1001D00070471E4908601C494FF00000086019492B
:1001E0004FF0010008601B484FF47F01D0F8002059
:1001F00041EA0201016016484FF080510160164843
:100200000068006880F3088861B662B670471EF027
:10021000040F0CBFEFF30880EFF3098020E9F00F23
:1002200040F804ED1EF0040F0CBF80F3088880F343
:10023000098800B502F0FCFE5DF804EB4EF0040EF8
:1002400070470000840100207C0100208001002014
:1002500004ED00E020ED00E008ED00E040EA0103DD
:100260009B0703D009E008C9121F08C0042AFAD26C
:1002700003E011F8013B00F8013B521EF9D2704730
:10028000D2B201E000F8012B491EFBD270470022D8
:10029000F6E710B513460A4604461946FFF7F0FF85
:1002A000204610BD421E12F8013F002BFBD111F871
:1002B000013B02F8013B002BF9D1704730B50546F0
:1002C0002A460B4612F8010B13F8014B08B1A04265
:1002D000F8D01CB1002802D06D1CF1E7284630BDD3
:1002E00010B5044604E00B7800F8013B03B1491C4B
:1002F000521EF8D2204610BD421C10F8011B0029E6
:10030000FBD1801A704710B5002200E0521C835CBC
:100310008C5CA34201D1002BF8D1D8B2E1B2401AD3
:1003200010BD034611F8012B00F8012B002AF9D16A
:100330001846704730B505460020034600E05B1CB8
:10034000934205D2EC5CC85C201A01D1002CF6D196
:1003500030BD0000064C074D06E0E06840F00103A8
:1003600094E8070098471034AC42F6D3FFF7E4FE58
:10037000285100084851000870B58C1810F8015B2E
:1003800015F0070301D110F8013B2A1106D110F82E
:10039000012B03E010F8016B01F8016B5B1EF9D132
:1003A0002B0705D40023521E0DD401F8013BFAE7B8
:1003B00010F8013BCB1A921C03E013F8015B01F823
:1003C000015B521EF9D5A142D8D3002070BD10B5F3
:1003D00004F05AFB002010BD21B1826842F00102F6
:1003E000826003E0826822F001028260704721B1DE
:1003F000826842F48072826003E0826822F4807234
:1004000082607047014600208A6802F004020AB147
:10041000012000E000207047014600208A6802F0B9
:1004200008020AB1012000E00020704730B5024602
:100430000020002350680F4C20400D790C6844EADE
:1004400005242043506090680B4C2040D1E90254B1
:100450002C434D7944EA450420439060D06A20F44F
:1004600070000C7C641EE4B2234340EA0350D06267
:1004700030BD0000FFFEF0FFFDF7F1FFF0B50446D0
:100480000D4600200021092D11DDE068A5F10A06C6
:1004900006EB4607072606FA07F18843A5F10A0688
:1004A00006EB460603FA06F10843E0600CE020691B
:1004B00005EB4507072606FA07F1884305EB4506D5
:1004C00003FA06F108432061072A0FDA606B561E13
:1004D00006EB86071F2606FA07F18843561E06EB31
:1004E000860605FA06F10843606322E00D2A0FDA5A
:1004F000206BD61F06EB86071F2606FA07F18843F6
:10050000D61F06EB860605FA06F10843206310E0C5
:10051000E06AA2F10D0606EB86071F2606FA07F130
:100520008843A2F10D0606EB860605FA06F108439C
:10053000E062F0BD816841F008018160704721B13F
:10054000826842F4A002826003E0826822F4A00282
:1005500082607047816841F004018160704700004B
:1005600000B58BB00121084600F0E6FA114800F012
:10057000CFF811480090002004904FF4807006904E
:100580000E48019080200590C00007900220039043
:1005900000200290202008900002099000200A907C
:1005A0006946044800F05AF90121024800F0A4F815
:1005B0000BB000BD080002404C240140C0000020E8
:1005C00008B50121042000F0D7FA6020ADF8000042
:1005D00000208DF803006946014800F05EF908BD6F
:1005E0000008014010B5FFF7EBFFFFF7B9FF00F07F
:1005F00001F810BD00B585B00121480200F0BCFA39
:100600004FF4004000F08CFA0523012219461E48E1
:10061000FFF734FF0523022206211B48FFF72EFFB8
:100620000020009001208DF8040000208DF80500C6
:100630004FF4602002900020039002208DF81000FB
:1006400069461148FFF7F2FE01210F48FFF7CFFE80
:1006500001210D48FFF7C0FE0B48FFF76BFF00BFFD
:100660000948FFF7D9FE0028FAD10748FFF772FFC3
:1006700000BF0548FFF7C6FE0028FAD10121024855
:10068000FFF75DFF05B000BD0024014008B5012162
:10069000082000F071FA10208DF803000001ADF879
:1006A000000003208DF802006946044800F0F5F8C8
:1006B0004FF48071014800F07DF908BD000C014045
:1006C00010B54FF48071024800F074F910BD0000BD
:1006D000000C014010B54FF48071024800F068F939
:1006E00010BD0000000C014000BFFEE710B54FF444
:1006F000A06000F00BFA10BD21B1026842F00102C7
:10070000026004E002684FF6FE731A400260704710
:1007100001684FF6FE7211400160002101604160E6
:100720008160C1604B49884208D14A49083949680B
:1007300041F00F01474A083A51608AE045491431B7
:10074000884208D143490839496841F0F001414ADB
:10075000083A51607DE03F492831884208D13D493F
:100760000839496841F470613A4A083A516070E0CA
:1007700038493C31884208D136490839496841F442
:100780007041344A083A516063E03249503188423E
:1007900008D130490839496841F470212D4A083A96
:1007A000516056E02B496431884208D12949083903
:1007B000496841F47001274A083A516049E02549E7
:1007C0007831884208D123490839496841F070617D
:1007D000204A083A51603CE01F49884206D1011F77
:1007E000096841F00F01021F116032E01A4914310B
:1007F000884208D11849091F096841F0F001164ADA
:10080000121F116025E014492831884208D112498D
:10081000091F096841F470610F4A121F116018E046
:100820000D493C31884208D10B49091F096841F440
:100830007041094A121F11600BE00749503188428C
:1008400007D10549091F096841F47021024A121FA6
:1008500011607047080002400804024010B50022F1
:10086000026847F6F0739A430C6A8B6823430C695D
:1008700023434C6923438C692343CC6923434C6A4B
:1008800023438C6A23431A430260CB6843600B689E
:1008900083604B68C36010BD70472DE9F04102468C
:1008A00000250026002000230024002791F803C023
:1008B0000CF00F0591F803C00CF0100CBCF1000F08
:1008C00003D091F802C04CEA050591F800C0BCF1D4
:1008D000000F31D0146800202BE04FF0010C0CFA0F
:1008E00000F3B1F800C00CEA03069E4220D1830059
:1008F0004FF00F0C0CFA03F7BC4305FA03FC4CEA6B
:10090000040491F803C0BCF1280F06D14FF0010C8C
:100910000CFA00FCC2F814C00AE091F803C0BCF164
:10092000480F05D14FF0010C0CFA00FCC2F810C0C2
:10093000401C0828D1D31460B1F800C0BCF1FF0FEF
:1009400034DD546800202EE000F1080C4FF001085F
:1009500008FA0CF3B1F800C00CEA03069E4221D15C
:1009600083004FF00F0C0CFA03F7BC4305FA03FCAD
:100970004CEA040491F803C0BCF1280F05D100F142
:10098000080C08FA0CF8C2F8148091F803C0BCF106
:10099000480F07D100F1080C4FF0010808FA0CF8D5
:1009A000C2F81080401C0828CED35460BDE8F08106
:1009B000416170470161704710B5054800680549FD
:1009C000886003480838018803A002F0DDFC10BDF0
:1009D000E8F7FF1FA42300200A4368697020466CD3
:1009E0006173682043617061636974793A25644B6F
:1009F000200A000010B50A4800680A490860084843
:100A0000001F00684860064808380068886008468B
:100A100003680268016804A002F0B6FC10BD000083
:100A2000F0F7FF1FA42300200A4368697049443A85
:100A30003078253038582D253038582D2530385805
:100A40000A00000010B5012102A002F05AFF04497B
:100A5000086010BD6275666665725F6C6F636B00DF
:100A6000B400002008B50121042000F085F8102012
:100A70008DF803000320ADF800008DF802006946F0
:100A80000148FFF70AFF08BD00080140C2684A405C
:100A9000C260704700BFFEE77047000070B50021DC
:100AA00000230F22C47804B3154C246804F4E064D6
:100AB000C4F5E064210AC1F10403CA40447804FA91
:100AC00003F184781440214309010E4C0678A155A6
:100AD000047804F01F050124AC4005786D11AD00C9
:100AE00005F1E025C5F8004109E0047804F01F0590
:100AF0000124AC40044D0678761145F8264070BDBF
:100B00000CED00E000E400E080E100E00249014378
:100B1000024A1160704700000000FA050CED00E089
:100B200001460020034A506820F4404008435060CA
:100B3000704700000010024029B1064A5269024382
:100B4000044B5A6104E0034A52698243014B5A61E3
:100B5000704700000010024029B1064AD2690243E2
:100B6000044BDA6104E0034AD2698243014BDA6143
:100B7000704700000010024029B1064A9269024302
:100B8000044B9A6104E0034A92698243014B9A61E3
:100B9000704700000010024030B500210022002400
:100BA00000232D4D6D6805F00C0121B1042905D0FD
:100BB000082923D105E0294D056022E0274D056075
:100BC0001FE0254D6D6805F47012234D6D6805F426
:100BD0008034022505EB92421CB9214D5543056036
:100BE0000BE01D4D6D6805F400351DB11C4D5543DE
:100BF000056002E0194D5543056002E0174D0560A0
:100C000000BF00BF144D6D6805F0F0010909154DD6
:100C10006B5C0568DD4045600F4D6D6805F4E06173
:100C2000090A104D6B5C4568DD4085600A4D6D68B2
:100C300005F46051C90A0B4D6B5C4568DD40C56029
:100C4000054D6D6805F44041890B074D6B5CC56827
:100C5000B5FBF3F5056130BD0010024000127A00CB
:100C600000093D001400002024000020704700000F
:100C700010B500230222102105A002F030FD074923
:100C800008600846006810B105A002F07DFB10BDA9
:100C900073656E736F725F6D71000000B8000020A5
:100CA0000A73656E736F725F6D7120696E6974206F
:100CB0007375636365737365640A000008B5022089
:100CC0004FF4FA6300220649009006A003F066FC88
:100CD000094908600846006803F0A2FC08BD00004E
:100CE000B54A000861645F636F6E766572745F7405
:100CF000696D657200000000C400002010B500F0AE
:100D000001F810BD0CB50020019000903348006838
:100D100040F480303149086000BF3048006800F47A
:100D2000003000900198401C0190009818B901987B
:100D3000B0F5A06FF1D12948006800F4003010B17F
:100D40000120009001E0002000900098012843D18C
:100D50002348006840F010002149086008460068F8
:100D600020F0030008600846006840F002000860B8
:100D70001A48406819494860084640684860084673
:100D8000406840F4806048600846406820F47C1069
:100D900048600846406840F4E8104860084600682B
:100DA00040F08070086000BF0C48006800F00070E0
:100DB0000028F9D00948406820F00300074948603E
:100DC0000846406840F00200486000BF03484068A1
:100DD00000F00C000828F9D10CBD00000010024002
:100DE0000020024010B5FFF781FC00F007F8FFF784
:100DF00039FEFFF74BFC00F003FA10BD30B5144884
:100E000000684FF47A72B0FBF2F1B1F1807F00D349
:100E10001DE021F07F40401E4FF0E022506150174E
:100E20000F22002807DA13071D0E0A4B00F00F04EB
:100E3000241F1D5503E013071C0E074B1C5400BF55
:100E400000204FF0E02290610720106100BF30BD0C
:100E50000000002018ED00E000E400E010B502F012
:100E600011FA03F029FB02F01DFA10BD10B513486A
:100E7000006840F0010011490860084640681049C8
:100E800008400E494860084600680E4908400B4972
:100E900008600846006820F4802008600846406822
:100EA00020F4FE0048604FF41F008860FFF726FF23
:100EB0004FF000600449086010BD000000100240BF
:100EC0000000FFF8FFFFF6FE08ED00E07CB5002211
:100ED000114623A002F00CFF25490860084600686F
:100EE00010B124A002F050FA00242EE004EB4400DC
:100EF000294901EBC000406904EB4401264A02EB9A
:100F0000C101097C04EB4405164606EBC505CDE995
:100F10000010EB6804EB440506EBC505AA6804EB7A
:100F2000440506EBC505696804EB440556F8350031
:100F300003F0DEF8194908600846006818B1084651
:100F4000006803F01DFA601CC4B204EB4400124AAE
:100F500052F830100FA0FFF7D6F90028C6D17CBD9B
:100F60007573617274325F726563765F73656D006D
:100F70002C0000200A7573617274325F72656376AB
:100F80005F73656D20696E69742073756363657343
:100F90007365640A000000003C0000203800002057
:100FA00010B52021094800F080F818B12021074829
:100FB00000F066F80821054800F077F8012803D111
:100FC0000821024800F05CF810BD00000038014024
:100FD00010B520211A4800F068F880B1184800F0D8
:100FE00003F9C4B2174801880088401C154A1080D4
:100FF000154844542021124800F042F800BF08214F
:101000000F4800F052F8012803D108210C4800F0E5
:1010100037F810210A4800F048F801280FD10022C3
:10102000084801880088401C064B18800648425436
:101030000648006802F084FE014800F0D5F810BDB3
:1010400000440040BE000020A42200202C0000200C
:1010500010B52021094800F028F818B120210748D0
:1010600000F00EF80821054800F01FF8012803D110
:101070000821024800F004F810BD000000480040BC
:1010800001F40072B2F5007F00D100BFCA430280B4
:10109000704721B1828942F40052828104E0828942
:1010A0004DF6FF731A408281704702460020B1F569
:1010B000007F00D100BF13880B400BB1012000E07E
:1010C00000207047F0B503460024002600250020CC
:1010D00040F66A17B94200D100BF1846C1F3421466
:1010E00001F01F06012707FA06F5012C01D10C308B
:1010F00004E0022C01D1103000E014301AB107686E
:101100002F43076002E00768AF430760F0BD0000AF
:101110002DE9F04786B005460E460024A24600BFE2
:10112000A1460027B08900B100BF2F462C8A4CF69B
:10113000FF700440F08804432C82AC894EF6F31013
:101140000440B08831890843718908430443AC8165
:10115000AC8A4FF6FF400440B0890443AC8201A83A
:10116000FFF71AFD1F48874202D1DDF810A001E009
:10117000DDF80CA0A88900F4004040B10AEBCA00D9
:1011800000EB0A1031684900B0FBF1F807E00AEB08
:10119000CA0000EB0A1031688900B0FBF1F8642046
:1011A000B8FBF0F004012009642101FB1089A88933
:1011B00000F4004040B1322000EBC900B0FBF1F078
:1011C00000F00700044308E0322000EB091064211E
:1011D000B0FBF1F000F00F0004432C8106B0BDE835
:1011E000F08700000038014001468888C0F30800FD
:1011F0007047C1F308028280704700BFFEE700001D
:1012000000B587B001210420FFF7B6FC0121880357
:10121000FFF7B2FC18208DF81B004FF40070ADF8FA
:10122000180003208DF81A0006A94248FFF735FB85
:1012300004208DF81B000002ADF8180003208DF883
:101240001A0006A93B48FFF728FB4FF4E130029053
:101250000020ADF80C00ADF80E00ADF810000C2029
:10126000ADF812000020ADF8140002A93248FFF7D3
:101270004FFF01213048FFF70CFF40212E48FFF7B8
:10128000FFFE01210420FFF777FC01214804FFF74E
:1012900063FC18208DF81B000420ADF81800032013
:1012A0008DF81A0006A92348FFF7F7FA04208DF8F5
:1012B0001B000820ADF8180003208DF81A0006A9BD
:1012C0001C48FFF7EAFA4FF4E13002900020ADF835
:1012D0000C00ADF80E00ADF810000C20ADF81200B7
:1012E0000020ADF8140002A91448FFF711FF2620D2
:1012F0008DF8040001208DF805008DF806008DF8AA
:10130000070001A8FFF7CAFB012240F225510B4854
:10131000FFF7D8FE012240F224410848FFF7D2FE31
:1013200001210648FFF7B5FE40210448FFF7A8FE5B
:1013300007B000BD000801400038014000440040F3
:10134000014609B900207047C8B220B1C8B20E4AA0
:10135000105C401CF7E701F47F4028B10A48C1F354
:101360000722805C0930EEE701F47F0028B10648CF
:10137000C1F30742805C1130E5E7034800EB1160E0
:1013800000781930DFE70000744D000802E008C85B
:10139000121F08C1002AFAD170477047002001E0EF
:1013A00001C1121F002AFBD17047000003490868E1
:1013B000884201D0012070470020FCE7680100202E
:1013C0002DE9F04389B0064688469146002400E0A6
:1013D000641C305D202804D0305D092801D04445CC
:1013E000F6D324B94FF0FF3009B0BDE8F0832146B1
:1013F000304601F0DDFA054615B94FF0FF30F3E74E
:10140000202101A8FEF743FF01AA4146304601F022
:1014100039FB074617B94FF0FF30E5E701A9384619
:10142000A847C9F800000020DEE700002DE9FC5FB6
:1014300004468B4615461E46DDE90C9ADDE90E781A
:1014400004F11C004060006000BF24346560A660A9
:10145000C4F80C90C4F810A02321D4E9030202F0D0
:101460001AF9D4E9033C63441A1F0F4BD4E9010174
:1014700001F0E2FE2060A77667760020E061C4F804
:101480002880C4F82C80606120766066A066243CC9
:1014900000902346054A2146019004F1540003F0D0
:1014A000A8F80020BDE8FC9F81410008F143000836
:1014B0002DE9F04704460E4617469846DDF8209081
:1014C00084F81190607C20F0010060746662A7626D
:1014D00000202063C4F82C80002506E004F11C01E4
:1014E00001EBC50001F06EFF6D1C012DF6DBBDE8C0
:1014F000F08710B50246002001460EE002F11C0301
:1015000003EBC100D0E900436360D0E900342360FD
:101510004060006000BF481C01460129EEDB10BDA1
:1015200008B500200090002424E04FF0FF3112485D
:10153000006802F052FA114804880F48006802F06F
:10154000FBF94FF0FF33022269460D48006802F0B4
:1015500014F9BDF8000018B90AA001F015FF05E064
:10156000BDF8002021460DA001F00EFF4FF6FF70E0
:1015700002F0B6FED9E70000B4000020C000002051
:10158000B8000020BBF1C8A174656D70657261740C
:10159000757265CAA7B0DC0A000000000A627269B1
:1015A0006768746E6573733A2025642C2074656DCA
:1015B00070657261747572653A2025640A000000D6
:1015C00010B520A001F0E0FE2148017821A001F033
:1015D000DBFE1F48007800F0010010B123A001F0ED
:1015E000D3FE1B48007800F0020010B122A001F0E9
:1015F000CBFE1748007800F0040010B121A001F0E4
:10160000C3FE1348007800F0080010B121A001F0DB
:10161000BBFE0F48007800F0100010B120A001F0D0
:10162000B3FE0B48007800F0800030B108480F305E
:1016300001681DA001F0A8FE02E01FA001F0A4FEB9
:1016400010BD0000627573206661756C743A0A0003
:1016500029ED00E05343425F434653525F424653F5
:10166000523A307825303258200000004942555314
:101670004552522000000000505245434953455204
:1016800052200000494D5052454349534552522083
:1016900000000000554E53544B45525220000000AC
:1016A00053544B45525220005343422D3E42464133
:1016B000523A253038580A000A00000070B5044636
:1016C0000D4600F0C3FC002070BD70B504460D4609
:1016D00000F0BEFE002070BD10B51448006890F800
:1016E0002900C0F3400020B90020114908700846C5
:1016F00010BD1048006838B180220E4801680C48BF
:10170000FEF7EEFD0A48F3E701F0BAF920B10AA1AD
:101710000748FEF706FE03E009A10548FEF701FEB3
:1017200009A10348FEF7BEFD0148E1E79C01002046
:10173000E8260020A00100206D7368200000000052
:1017400066696E73682000003E00000010B501F06D
:1017500027FC10BD0549096891F8291060F3410183
:10176000024A126882F82910704700009C0100208C
:10177000024A1060024A1160704700008C0100208C
:10178000900100207CB5002517491848FFF7F0FFAD
:101790008021012001F01CFB154908600846006803
:1017A00020B914A001F0F0FD681E7CBD0A200521BF
:1017B0004FF480630022CDE90010144914A002F018
:1017C00097FC044600231A4613A10948006802F05A
:1017D000A4FA0120FFF7BEFF1CB115B9204602F0A4
:1017E000CFFD0020E1E70000285100085850000814
:1017F0009C0100206E6F206D656D6F727920666FA1
:1018000072207368656C6C0A0000000021180008E3
:10181000747368656C6C0000736872780000000077
:10182000E948006890F8290020F00100401CE649D2
:10183000096881F82900FFF74FFF054601F0A4FD74
:10184000C1E1FFF783FF0446002C00DABBE11B2C4B
:1018500005D10120DC49096881F82800B3E1DA48A4
:10186000006890F8280001280DD15B2C05D10220DA
:10187000D549096881F82800A5E10020D249096806
:1018800081F8280045E0D048006890F82800022838
:101890003FD10020CC49096881F82800412C00D1B3
:1018A00091E1422C00D18EE1442C11D1C648006850
:1018B000B0F87C0058B1C5A001F066FDC2480068D0
:1018C000B0F87C00401EC0490968A1F87C007AE1AC
:1018D000432C1ED1BC480068B0F87C00BA490968A6
:1018E000B1F87A10884213DAB7480068B0F87C2063
:1018F000B54800682A30815CB5A001F045FDB248CA
:101900000068B0F87C00401CAF490968A1F87C0071
:1019100059E10CB1FF2C00D155E1092C1FD1002554
:1019200003E0AAA001F030FD6D1CA7480068B0F8E4
:101930007C00A842F5DCA44800682A3003F0C4F813
:10194000A14800682A30FEF7D7FC80B29E4909689A
:10195000A1F87A009C490968A1F87C0033E17F2C4A
:1019600001D0082C6ED198480068B0F87C0000B90E
:1019700029E195480068B0F87A00401E924909684C
:10198000A1F87A0090480068B0F87C00401E8E49AB
:101990000968A1F87C008C480068B0F87A008A4990
:1019A0000968B1F87C1088423FDD874B1B68B3F8AB
:1019B0007A30854E3668B6F87C609A1B824B1B687D
:1019C000B3F87C305B1C804E36682A3699197E4B02
:1019D0001B68B3F87C607C4B1B682A33F01801F05D
:1019E00039FE002278480068B0F87A10764800681E
:1019F0002A30425474480068B0F87C20724800686D
:101A00002A30111873A001F0BFFC6F480068B0F8CD
:101A10007C5003E06DA001F0B7FC6D1C6A480068C3
:101A2000B0F87A00A842F5DA0BE06CA001F0ACFC4B
:101A3000002165480068B0F87A20634800682A30C1
:101A40008154C0E00D2C01D00A2C2BD101F018F8E4
:101A5000012812D15C48006890F8290000F00100CC
:101A600010B15FA001F090FC57480068B0F87A1000
:101A7000554800682A3000F065FFFFF72DFE054647
:101A800001F082FC5021504800682A30FEF7FFFB2D
:101A900000204D490968A1F87A004B490968A1F86E
:101AA0007C0090E048480068B0F87A00502804DBD9
:101AB000002045490968A1F87A0043480068B0F859
:101AC0007C0041490968B1F87A10884245DA3E4BFA
:101AD0001B68B3F87A303C4E3668B6F87C609A1BC7
:101AE000394B1B68B3F87C60374B1B682A33F118FD
:101AF000354B1B68B3F87C305B1C334E36682A3696
:101B0000981901F0A7FD30480068B0F87C202E48F5
:101B100000682A3084542C48006890F8290000F0AE
:101B2000010050B128480068B0F87C2026480068C1
:101B30002A3011182BA001F027FC23480068B0F8C8
:101B40007C5003E021A001F01FFC6D1C1E480068C2
:101B5000B0F87A00A842F5DC12E01B480068B0F843
:101B60007A20194800682A3084541748006890F891
:101B7000290000F0010018B1214615A001F004FC75
:101B8000002411480068B0F87A00401C0E4909682A
:101B9000A1F87A000C480068B0F87C00401C0A49A3
:101BA0000968A1F87C0008480068B0F87A0050285D
:101BB00008DB002004490968A1F87A000249096895
:101BC000A1F87C0000BF3CE69C010020080000005A
:101BD0002563000008257320200800000820080065
:101BE0000A0000002573000010B51448006800F0DA
:101BF000020010B112A001F0C7FB1048006800F00D
:101C0000804088B10D48C01E007808B1FFF7D8FCAD
:101C10000A48001F007808B100F0D0FD0748801E78
:101C2000008808B102F0C6FF0448006800F00040D8
:101C300010B109A001F0A8FB10BD00002CED00E0E0
:101C40006661696C656420766563746F7220666591
:101C50007463680A00000000646562756720657639
:101C6000656E740A0000000010B502A001F08CFB44
:101C7000002010BD48656C6C6F2052542D54687262
:101C8000656164210A00000007E002210348FEF7B5
:101C9000FDFE4FF4FA6002F023FBF6E70008014076
:101CA00010B50CA001F070FB0F4804680CE0022294
:101CB0000EA12068FEF73EFB00B904E00CA02168ED
:101CC00001F062FB00BF08340A4800688442EED38A
:101CD000002010BD2D2D46756E6374696F6E204C0B
:101CE0006973743A0A0000008C0100205F5F0000F5
:101CF00025730A00900100202DE9F04F8FB00027D6
:101D00000FF2C009082302AA04210AA800F096F8DD
:101D10004FF010084A4641462CA001F035FB4046E2
:101D200000F028FF32A001F02FFB00BF0AA93846BF
:101D300000F099F8074600253BE002A850F825007E
:101D4000A0F11406FEF710FA8346307C20F08000E4
:101D50009DF83010884203D05846FEF709FA27E074
:101D60005846FEF705FA344604F11C0001F059FB11
:101D7000A8B904F11C0001F05CFB8246606A2346AE
:101D800010224146CDE9000A21A001F0FDFA04F13C
:101D90001C0002F0B5FE15A001F0F6FA07E0606A3B
:101DA00023461022414600901FA001F0EDFA00BF2B
:101DB0006D1C0E98A842C0DC002FB7D100200FB0D8
:101DC000BDE8F08F6576656E74000000252D2A2E23
:101DD000732020202020207365742020202073751C
:101DE0007370656E64207468726561640A00000037
:101DF00020202D2D2D2D2D2D2D2D2D2D202D2D2D3A
:101E00002D2D2D2D2D2D2D2D2D2D2D0A00000000D9
:101E1000252D2A2E2A732020307825303878202549
:101E20003033643A00000000252D2A2E2A7320202A
:101E300030782530387820300A0000002DE9F0474E
:101E400004460D4616461F46284601F075FE81469B
:101E500009F10408C4F8008025726660E76000207C
:101E60002061BDE8F0872DE9F84F07460C464FF09A
:101E7000000A00202061E06808B1207A10B9002033
:101E8000BDE8F88FD4F800801FB945464FF0010A2D
:101E900000E03D46FEF768F90090BAF1000F0ED160
:101EA000A5F1140B9BF8100020F08000217A8842E5
:101EB00004D00098FEF75CF90020E1E700BF00269F
:101EC000D4F804900BE02D68454501D1002507E0CA
:101ED000761C49F8045BE068B04200D100E0F2E70C
:101EE00000BF0098FEF744F926612846C8E70000C5
:101EF0002DE9F04F91B000270FF2D409082304AA6E
:101F000005210CA8FFF79AFF4FF010084A464146FA
:101F100031A001F039FA404600F02CFE37A001F064
:101F200033FA00BF0CA93846FFF79DFF074600258E
:101F300045E004A850F82500A0F11406FEF714F9B6
:101F40008346307C20F080009DF83810884203D012
:101F50005846FEF70DF931E05846FEF709F93446C8
:101F600004F11C0001F05DFAB8B904F11C0001F0A5
:101F700060FA8246208D618D23461022CDE9010A48
:101F80000091414624A001F0FFF904F11C0002F089
:101F9000B7FD27A001F0F8F90FE004F11C0001F0F3
:101FA00048FA8246208D618D23461022CDE9010A30
:101FB000009141461FA001F0E7F900BF6D1C109889
:101FC000A842B6DC002FADD1002011B0BDE8F08FE3
:101FD0006D61696C626F7800252D2A2E7320656E05
:101FE0007472792073697A652073757370656E6495
:101FF000207468726561640A00000000202D2D2D98
:102000002D20202D2D2D2D202D2D2D2D2D2D2D2D27
:102010002D2D2D2D2D2D0A00252D2A2E2A7320251C
:102020003034642020253034642025643A000000D8
:102030000A000000252D2A2E2A7320253034642022
:1020400020253034642025640A00000010B50848BB
:10205000016808A001F098F90B4801680BA001F095
:1020600093F90F4801680FA001F08EF910BD000030
:10207000DC000020746F74616C206D656D6F727987
:102080003A2025640A000000E000002075736564B2
:10209000206D656D6F7279203A2025640A0000007A
:1020A000E40000206D6178696D756D20616C6C6F66
:1020B0006361746564206D656D6F72793A20256483
:1020C0000A0000002DE9F04F8FB000270FF2CC0975
:1020D000082302AA06210AA8FFF7B0FE4FF0100855
:1020E0004A46414630A001F04FF9404600F042FD1B
:1020F00034A001F049F900BF0AA93846FFF7B3FE42
:102100000746002541E002A850F82500A0F114067A
:10211000FEF72AF88346307C20F080009DF83010CE
:10212000884203D05846FEF723F82DE05846FEF7C4
:102130001FF8344604F11C0001F073F9A8B904F14A
:102140001C0001F076F98246A08D234610224146FC
:10215000CDE9000A21A001F017F904F11C0002F0FA
:10216000CFFC23A001F010F90DE004F11C0001F0F8
:1021700060F98246A08D234610224146CDE9000A2F
:102180001CA001F001F900BF6D1C0E98A842BADC3A
:10219000002FB1D100200FB0BDE8F08F6D736771D3
:1021A0007565756500000000252D2A2E7320656E6B
:1021B0007472792073757370656E642074687265CB
:1021C00061640A00202D2D2D2D20202D2D2D2D2D4B
:1021D0002D2D2D2D2D2D2D2D2D0A0000252D2A2EB6
:1021E0002A732025303464202025643A0000000042
:1021F0000A000000252D2A2E2A7320253034642061
:102200002025640A000000002DE9F04F91B000275E
:102210000FF2A009082304AA03210CA8FFF70EFE61
:102220004FF010084A46414624A001F0ADF8404660
:1022300000F0A0FC2AA001F0A7F800BF0CA93846C6
:10224000FFF711FE074600262AE004A850F82600F2
:10225000A0F11404FDF788FF8346207C20F0800065
:102260009DF83810884203D05846FDF781FF16E0EC
:102270005846FDF77DFF254605F11C0001F0D9F811
:10228000824695F827001022A96A2B46CDE9020A5A
:10229000CDE9002141461AA001F076F800BF761C76
:1022A0001098B042D1DC002FC8D1002011B0BDE899
:1022B000F08F00006D75746578000000252D2A2EC2
:1022C000732020206F776E65722020686F6C642009
:1022D00073757370656E64207468726561640A005A
:1022E000202D2D2D2D2D2D2D2D202D2D2D2D202D45
:1022F0002D2D2D2D2D2D2D2D2D2D2D2D2D0A00008B
:10230000252D2A2E2A7320252D382E2A732025309C
:1023100034642025640A00002DE9F04F8FB00027B7
:102320000FF2CC09082302AA02210AA8FFF786FDB2
:102330004FF010084A46414630A001F025F84046CB
:1023400000F018FC34A001F01FF800BF0AA93846BD
:10235000FFF789FD0746002541E002A850F8250057
:10236000A0F11406FDF700FF8346307C20F08000CA
:102370009DF83010884203D05846FDF7F9FE2DE055
:102380005846FDF7F5FE344604F11C0001F049F80B
:10239000A8B904F11C0001F04CF88246A08C234639
:1023A00010224146CDE9000A21A000F0EDFF04F122
:1023B0001C0002F0A5FB17A000F0E6FF0DE004F101
:1023C0001C0001F036F88246A08C234610224146BC
:1023D000CDE9000A1AA000F0D7FF00BF6D1C0E98CF
:1023E000A842BADC002FB1D100200FB0BDE8F08FB9
:1023F00073656D6170686F7265000000252D2A2E6F
:1024000073207620202073757370656E6420746865
:10241000726561640A000000202D2D2D202D2D2DC8
:102420002D2D2D2D2D2D2D2D2D2D2D0A00000000B3
:10243000252D2A2E2A7320253033642025643A0066
:10244000252D2A2E2A7320253033642025640A0086
:102450002DE9F04FB5B04FF000090FF21C1B082317
:1024600027AA01212FA8FFF7E9FC4FF0100A5A46CE
:102470005146434800F088FF504600F07BFB41A0E6
:1024800000F082FF00BF2FA94846FFF7ECFC814611
:102490004FF0000865E027A850F82800A0F11405C7
:1024A000FDF762FE3490287C20F080009DF8C41077
:1024B000884203D03498FDF75BFE50E09022294615
:1024C00003A8FDF7CBFE3498FDF752FE2C4694F896
:1024D0003D0023461022514600903AA000F054FFE0
:1024E00094F83C0000F00F06012E03D138A000F054
:1024F0004BFF15E0022E03D138A000F045FF0FE09E
:102500001EB939A000F040FF0AE0042E03D139A023
:1025100000F03AFF04E0032E02D139A000F034FFAE
:10252000276B00E07F1C38782328FBD0D4E90C10FF
:10253000791A401A64214843616BB0FBF1F00290B4
:10254000A16B206DCDE90001636A206BC01A636B3B
:10255000C1181A462DA0029B00F016FF00BF08F11B
:1025600001083398404596DCB9F1000F8BD100206B
:1025700035B0BDE8F08F00007468726561640000DA
:10258000E84F0008202D2D2D20202D2D2D2D2D2D17
:102590002D202D2D2D2D2D2D2D2D2D2D202D2D2D85
:1025A0002D2D2D2D2D2D2D20202D2D2D2D2D2D2082
:1025B000202D2D2D2D2D2D2D2D2D2D202D2D2D0A88
:1025C00000000000252D2A2E2A73202533642000C8
:1025D000207265616479202000000000207375730B
:1025E00070656E640000000020696E697420202010
:1025F0000000000020636C6F736520200000000065
:102600002072756E6E696E670000000020307825BC
:102610003038782030782530387820202020253038
:102620003264252520202030782530387820253048
:1026300033640A002DE9F04790B000270FF2B40987
:10264000082303AA0A210BA8FFF7F8FB4FF0100894
:102650004A46414629A000F097FE404600F08AFA1B
:1026600030A000F091FE00BF0BA93846FFF7FBFB3E
:10267000074600262DE003A850F82600A0F1140418
:10268000FDF772FD8246207C20F080009DF834101A
:10269000884203D05046FDF76BFD19E05046FDF728
:1026A00067FD2546D5E90B012B461022CDE9000137
:1026B000414625A000F068FE687C00F0010018B1DA
:1026C00027A000F061FE02E028A000F05DFE00BF40
:1026D000761C0F98B042CEDC002FC5D101F0E6FE8B
:1026E0000446214625A000F04FFE002010B0BDE8B2
:1026F000F087000074696D6572000000252D2A2E98
:10270000732020706572696F64696320202074698A
:102710006D656F757420202020202020666C616715
:102720000A000000202D2D2D2D2D2D2D2D2D2D209D
:102730002D2D2D2D2D2D2D2D2D2D202D2D2D2D2DD6
:102740002D2D2D2D2D2D0A00252D2A2E2A732030DA
:10275000782530387820307825303878200000000F
:102760006163746976617465640A0000646561631D
:10277000746976617465640A0000000063757272A2
:10278000656E74207469636B3A3078253038780A46
:102790000000000007E001210348FEF777F94FF43D
:1027A0007A7001F09DFDF6E70008014010B504467F
:1027B00000F02EFBFFF7EEFF10BD000010B51CA0CF
:1027C00000F0E2FD1F4801781FA000F0DDFD1D486C
:1027D000007800F0010010B121A000F0D5FD1948EB
:1027E000007800F0020010B120A000F0CDFD1548E7
:1027F000007800F0080010B11FA000F0C5FD1148DE
:10280000007800F0100010B11EA000F0BDFD0D48D2
:10281000007800F0800030B10A480C3001681CA03C
:1028200000F0B2FD02E01EA000F0AEFD10BD000001
:102830006D656D206D616E616765206661756C7494
:102840003A0A000028ED00E05343425F43465352EA
:102850005F4D4653523A3078253032582000000000
:102860004941434356494F4C2000000044414343F3
:1028700056494F4C200000004D554E53544B455285
:10288000522000004D53544B45525220000000008E
:102890005343422D3E4D4D41523A253038580A009F
:1028A0000A0000002DE9F04781460026002799F82C
:1028B000000028B90021084600F0A8F8BDE8F0871C
:1028C0001B48046827E006221AA12068FDF732FDA4
:1028D00000B11FE0206800F106084846FDF70CFD36
:1028E0008246524641464846FDF724FD88B926B93E
:1028F00047463846FDF700FD06464146384602F099
:102900002AF90546B54200DA2E4641460BA000F0F2
:102910003BFD00BF08340A4800688442D3D327B186
:1029200032463946484601F0C4FA00BFC6E7000007
:102930008C0100205F5F636D645F000025730A00F7
:102940009001002038B504460D4601E0641C6D1E60
:1029500020782028FAD020780928F7D00DB9002057
:1029600038BD6A4629462046FEF72AFD08B9009878
:10297000F6E7204600E0401C0178202902D00178CB
:102980000029F8D100210170214603A000F0FCFCD1
:102990004FF0FF30E4E7000025733A20636F6D6D60
:1029A000616E64206E6F7420666F756E642E0A000F
:1029B0002DE9F04106460D4600271048046815E051
:1029C00006220FA12068FDF7B5FC00B10DE02168DB
:1029D000881D2A463146FDF7ADFC28B9A81D21689F
:1029E000085C08B9676805E000BF0834064800685D
:1029F0008442E5D300BF3846BDE8F0818C01002059
:102A00005F5F636D645F00009001002070B5054654
:102A10000E460EA000F0B8FC134804680DE0062234
:102A200012A12068FDF786FC00B105E02068811D39
:102A300010A000F0A9FC00BF08340F4800688442D1
:102A4000EDD30EA000F0A0FC002070BD52542D5418
:102A50006872656164207368656C6C20636F6D6D6E
:102A6000616E64733A0A00008C0100205F5F636D41
:102A7000645F000025732000900100200A00000020
:102A8000012070472DE9F04782460E469046544695
:102A90000025002755E003E000202070641C6D1C19
:102AA0002078202802D02078092801D1B542F3D31C
:102AB000082F12D326A000F067FC4FF0000906E0B3
:102AC00058F829102AA000F05FFC09F10109B94566
:102AD000F6D326A000F058FC35E0B54200D332E032
:102AE000207822281CD1641C6D1C48F827407F1CCC
:102AF00009E020785C2804D16078222801D1641C88
:102B00006D1C641C6D1C2078222801D0B542F0D3C6
:102B1000B54200D317E000202070641C6D1C10E04B
:102B200048F827407F1C01E0641C6D1C2078202899
:102B300004D02078092801D0B542F5D3B54200D39E
:102B400001E0B542A7D300BF3846BDE8F0870000DA
:102B5000546F6F206D616E79206172677320212040
:102B60005765206F6E6C79205573653A0A00000036
:102B70002573200010B5044602E004A000F004FC18
:102B8000201EA4F10104F8D110BD00002D000000AA
:102B900030B51A4C436824681919884215D04B88FF
:102BA0009BB9174B1B6899420FD0164B1B688B4281
:102BB00001D1144B18604B684360104B1B68C31A5B
:102BC0000E4D4C682D682C44A3600C4C836824681F
:102BD0001A19824211D053887BB90A4B1B68834271
:102BE00001D1084B1A6043685360044B1B68D31A29
:102BF000024D44682D682C44A36030BDD0000020F5
:102C0000D4000020D80000202DE9F04F86B00D46FA
:102C10009C46DDE9106401960F9B04F04008B8F172
:102C2000000F02D0DFF8708101E0DFF87081CDF88D
:102C3000008004F01008B8F1000F01D024F0010466
:102C400004F00108B8F1000F02D04FF0300801E0A5
:102C50004FF02008C246002704F00208B8F1000F28
:102C600011D0002A02DA2D2752420CE004F00408A9
:102C7000B8F1000F01D02B2705E004F00808B8F1E7
:102C8000000F00D02027002142B94FF0300B8846BA
:102C9000491C0DF1080909F808B01DE01AE0E146E9
:102CA000B9F10A0F08D14FF00A0BB2FBFBFE0BFB88
:102CB0001E28B2FBFBF202E002F00F08120900BF6F
:102CC000DDF8009019F808B08846491C0DF1080994
:102CD00009F808B0002AE2D1B14200DD0E469B1B84
:102CE00004F01108B8F1000F10D117B1002B00DD6E
:102CF0005B1E06E0A84203D24FF0200880F8008057
:102D0000401CB3F10008A3F10103F3DC27B1A84292
:102D100000D207705B1E401C04F01008B8F1000FD1
:102D20000AD104E0A84201D280F800A0401CB3F10F
:102D30000008A3F10103F5DC06E0A84203D24FF03E
:102D4000300880F80080401CB046761E8845F4DCD0
:102D500008E0A84205D20DF1080818F8018080F8B3
:102D60000080401CB1F10008A1F1010104DDDDF893
:102D70000480B8F1000FECD106E0A84203D24FF076
:102D8000200880F80080401CB3F10008A3F1010383
:102D9000F3DC06B0BDE8F08F854E0008744E0008E5
:102DA0001CB514200A214FF480630022CDE90010E5
:102DB000044905A001F09CF90446204601F0E0FA20
:102DC0001CBD0000AD2700086D61696E00000000A9
:102DD00070B504460D4604FB05F000F047FB0646BF
:102DE0002EB104FB05F20021304600F054FC3046C1
:102DF00070BD000010B5044C02E020688047241D1F
:102E000002488442F9D310BD305000083C500008FD
:102E100010B5044C02E020688047241D024884421B
:102E2000F9D310BD3C5000085450000810B5FDF710
:102E30009BF9044604480088401C00B202490880FF
:102E40002046FDF795F910BD5801002010B5FDF79B
:102E50008BF904460C480088401E00B20A490880DD
:102E60000846B0F9000000280ADC0020088020464F
:102E7000FDF77EF90548006828B100F0A5FE02E0E4
:102E80002046FDF775F910BD580100205C010020B7
:102E900070B5054605B970BD1D480068854203D36D
:102EA0001C480068854200D3F5E7A5F10C044FF0FB
:102EB000FF31194800F061FF608818B12088B0F533
:102EC000F55F08D015A000F05FFA238862882146DC
:102ED00019A000F059FA002060804FF4F5502080CE
:102EE00021480068844201D21F4804600849606894
:102EF0000968611A401A1D490968081A1B490860C7
:102F00002046FFF745FE044800F01AFF00BFC2E765
:102F1000D0000020D4000020C0250020746F20665F
:102F20007265652061206261642064617461206261
:102F30006C6F636B3A0A00006D656D3A203078253E
:102F40003038782C207573656420666C61673A2090
:102F500025642C206D6167696320636F64653A2086
:102F60003078253034780A00D8000020E0000020B6
:102F700000487047A401002000487047A4210020A9
:102F800070B5FDF72FFFFFF735FFFFF7F5FF04469C
:102F9000FFF7EEFF0546214600F0A6FF70BD0000DA
:102FA00010B54FF0FF3420210C48FEF77EF80128C1
:102FB00004D10A48FEF718F904460CE00821074836
:102FC000FEF773F8012803D108210448FEF758F8EA
:102FD0000A2001F085F9E0B210BD00000038014080
:102FE00010B50446FFF722FF19E020780A280AD11D
:102FF0000D210E48FEF7FDF800BF40210B48FEF7FB
:1030000054F80028F9D014F8011B0848FEF7F1F82D
:1030100000BF40210548FEF748F80028F9D0207885
:103020000028E2D1FFF712FF10BD00000038014078
:1030300070B505462C1D3048006838B128462E4929
:1030400009688847064606B970BD00BF2BA0E16B32
:1030500000F09AF92DA0216A00F096F92FA0616A7C
:1030600000F092F931A0A16A00F08EF933A0E16A74
:1030700000F08AF935A0216800F086F937A0616870
:1030800000F082F939A0A16800F07EF93BA0E16868
:1030900000F07AF93DA0216900F076F93FA061695E
:1030A00000F072F941A0A16900F06EF943A0E16956
:1030B00000F06AF945A0216B00F066F947A0616B4A
:1030C00000F062F949A0A16B00F05EF9287800F0E9
:1030D000040048B101F02CF90646314647A000F043
:1030E00053F9FFF7B5F902E04CA000F04DF9FEF7F7
:1030F0007BFD00BFFEE70000880100207073723A7C
:10310000203078253038780A000000007230303ADC
:10311000203078253038780A000000007230313ACB
:10312000203078253038780A000000007230323ABA
:10313000203078253038780A000000007230333AA9
:10314000203078253038780A000000007230343A98
:10315000203078253038780A000000007230353A87
:10316000203078253038780A000000007230363A76
:10317000203078253038780A000000007230373A65
:10318000203078253038780A000000007230383A54
:10319000203078253038780A000000007230393A43
:1031A000203078253038780A000000007231303A3B
:1031B000203078253038780A000000007231313A2A
:1031C000203078253038780A000000007231323A19
:1031D000203078253038780A00000000206C723AE0
:1031E000203078253038780A000000002070633ADB
:1031F000203078253038780A000000006861726459
:10320000206661756C74206F6E20746872656164ED
:103210003A2025730D0A0D0A0000000068617264EF
:10322000206661756C74206F6E2068616E646C65D9
:10323000720D0A0D0A000000F0B504460D46164650
:10324000301D20F0070040380146002203E00C4FFB
:1032500041F82270521C102AF9D30D624FF0000C75
:10326000C1F824C0C1F828C0C1F82CC0C1F830C0D2
:103270004B638C634FF0807CC1F83CC0F0BD000014
:10328000EFBEADDE10B5FCF76FFF044604480078D2
:10329000401C034908702046FCF76AFF10BD00007F
:1032A000CC00002010B5FCF75FFF0446044800780E
:1032B000401E034908702046FCF75AFF10BD00006D
:1032C000CC00002070B504462068A0F11C052846FB
:1032D00001F010F8002070BD70B505460EE0FCF757
:1032E00043FF06462868A0F11C044FF0FF30A0639E
:1032F000204600F0FFFF3046FCF73AFF284600F07A
:1033000080F80028EBD0002070BD2DE9F041054683
:103310000C469046204601F049F8B8F1000F03D062
:10332000B8F1010F23D105E004F11C01284600F09B
:1033300061F81CE02E680FE0A6F11C0794F83D0030
:1033400097F83D10884206DA04F11C0107F11C00D1
:1033500000F050F802E03668AE42EDD100BFAE4258
:1033600004D104F11C01284600F044F800BF00BF5E
:103370000020BDE8F08110B5044604F11C0000F007
:103380001BF8002010BD00000FB438B505A8009050
:103390007F210848009B049A01F0D6F904467F2C4F
:1033A00000D97F240348FFF71BFE0020009038BCA3
:1033B0005DF814FB402500204060006070474060CD
:1033C00000607047406000607047026851600268AA
:1033D0000A600160486070470268516002680A60D4
:1033E0000160486070470268516002680A600160CD
:1033F000486070474268116042684A6041600860F6
:10340000704701460868884201D1012070470020BA
:10341000FCE701460868884201D10120704700207E
:10342000FCE701460868884201D10120704700206E
:10343000FCE7014600200A4601E01268401C1368C0
:103440008B42FAD17047D0E900215160D0E90012D7
:103450001160406000607047D0E900215160D0E900
:103460000012116040600060704700002DE9F041DB
:10347000054615B90020BDE8F081E81C20F00305E1
:103480004E480068854201D90020F4E70C2D00D297
:103490000C254FF0FF314A4800F06FFC49480068A6
:1034A00049490968461A7EE04748006884196088DF
:1034B000002874D106F10C006168081AA8426ED386
:1034C00006F10C006168091A05F11800814230D339
:1034D00006F10C0000EB05083B48006800EB08070C
:1034E0004FF4F55038800020788060687860BE60C6
:1034F000C4F80480012060803048796800680C308E
:10350000814205D03049786809680844C0F80880CD
:103510002E48016805F10C0008442C4908602C482D
:1035200000680968884219D228480068284908605C
:1035300014E001206080244960680968611A401A1B
:10354000224909680844214908602148006809683F
:10355000884203D21D4800681D4908604FF4F550A9
:10356000208018480068844212D107E0154800689E
:103570004068154909680844124908601148006804
:10358000408828B10F480068124909688842EDD187
:103590000B4800F0D5FB04F10C006CE7FFE70A488C
:1035A00000683044466805480068401BB0423FF65A
:1035B0007BAF034800F0C4FB00205CE7DC00002088
:1035C000C0250020D8000020D0000020E00000200E
:1035D000E4000020D40000202DE9F0410F461646FB
:1035E00004463D463346102B28D305F0030C04F067
:1035F00003084CEA080CBCF1000F1FD121462A46F3
:1036000010E052F804CB41F804CB52F804CB41F857
:1036100004CB52F804CB41F804CB52F804CB41F868
:1036200004CB103B102BECD204E052F804CB41F851
:1036300004CB1B1F042BF8D20C46154603E015F8EB
:1036400001CB04F801CBB3F1000CA3F10103F6D1D7
:10365000BDE8F08170B50C46014623468B4210D27E
:103660009D188D420DD91144134405E05D1E2B4673
:103670002E784D1E29462E70151EA2F10102F5D19D
:1036800008E003E013F8015B01F8015B151EA2F1ED
:103690000102F7D170BDF0B50C460546E6B2042A2A
:1036A00015D300F0030797B9014646EA062343EA1B
:1036B000034304E008C108C108C108C1103A102A38
:1036C000F8D201E008C1121F042AFBD20D4601E026
:1036D00005F8016B171EA2F10102F9D1F0BD2DE929
:1036E000F0470746884691469A463946062000F03C
:1036F000D8F9044614B92046BDE8F08784F811A033
:103700002046FFF738FE08F1030020F00300208573
:10371000A4F82A90218D091D628D01FB02F0FFF7AC
:10372000A5FE6062606A20B9204600F018F800200B
:10373000E2E7002020636063A063002508E0208D9D
:10374000001D616A05FB0016A06B3060A6636D1C4E
:10375000608DA842F3DC0020A0852046CCE710B5A0
:10376000044604F11C00FFF7B7FD606AFFF790FB09
:10377000204600F0C0F9002010BD2DE9FF470446A7
:103780000F4690464FF0000900F0D2FD0546FCF7C9
:10379000EBFC8246A08D48B9039838B95046FCF737
:1037A000E7FC6FF0010004B0BDE8F0873CE00020CA
:1037B000A863039830B95046FCF7DAFC6FF00100BB
:1037C000A863F0E7627C294604F11C00FFF79DFD29
:1037D000039800280CDD00F069FE814603AA002151
:1037E00005F1540000F0BEFE05F1540000F018FF92
:1037F0005046FCF7BDFC00F0E7F9A86B08B1A86BD8
:10380000D1E7FCF7B1FC8246039800280CDD00F0FC
:103810004DFEA0EB09090398A0EB09000390039863
:10382000002801DA00200390A08D0028BFD0266B6D
:1038300030682063606BB04201D100206063A08DCE
:10384000401EA0855046FCF793FC208D404501D2D8
:10385000208D00E040460246311D3846FFF7BCFE91
:10386000FCF782FC8246A06B3060A6635046FCF7F2
:103870007FFC002097E72DE9F04104460F461646ED
:10388000208DB04203D24FF0FF30BDE8F081FCF74D
:103890006BFC8046A56B2DB94046FCF769FC6FF0C8
:1038A0000200F2E72868A0634046FCF761FC0020B4
:1038B000286032463946281DFFF78EFEFCF754FC7F
:1038C0008046606B08B1606B05606563206B00B972
:1038D0002563A08D401CA08504F11C00FFF791FD1D
:1038E00050B904F11C00FFF7EDFC4046FCF740FC2A
:1038F00000F06AF90020C8E74046FCF739FC0020D8
:10390000C3E770B505460E462946032000F0C9F806
:1039100004460CB9204670BD2046FFF72CFD01205F
:10392000A0840020A062FF2084F82600002084F8F4
:10393000270066742046EEE72DE9F0410446002793
:1039400000F0F6FC0546FCF70FFC0646A06AA8420C
:1039500007D0781EA8633046FCF70AFC781EBDE845
:10396000F08114F8270F401E207014F8270910BBAF
:1039700094F82600A16A91F83D10884205D004F120
:1039800026020221A06A00F078FB04F11C00FFF778
:1039900038FD88B954F81C0FA0F11C05E56095F8B6
:1039A0003D00A072E07A401CE0721C3C04F11C0057
:1039B000FFF788FC012707E0A08C401CA0840020B2
:1039C000A062FF2084F826003046FCF7D1FB012FCF
:1039D00001D100F0F9F80020C1E773B5044600F00A
:1039E000A7FC0546FCF7C0FB06460020A863A06ABA
:1039F000A84205D194F82700401C84F827004BE02A
:103A000000BFA08C00280CDD34F8240F401E20805D
:103A1000656095F83D00A070E078401CE070243CA3
:103A20003AE0019840B96FF00100A8633046FCF716
:103A30009FFB6FF001007CBD95F83D00A16A91F8F5
:103A40003D10884205DA05F13D020221A06A00F02E
:103A500014FB627C294604F11C00FFF756FC019818
:103A6000002809DD01AA002105F1540000F07AFDCB
:103A700005F1540000F0D4FD3046FCF779FB00F06E
:103A8000A3F8A86B28B1A86B093000B9B9E7A86BF7
:103A9000D1E7FCF769FB06463046FCF769FB0020DE
:103AA000C9E72DE9F04106460F46304600F044F8DC
:103AB0000546E868FFF7DAFC044614B90020BDE8C3
:103AC000F08100212046EA68FFF7E5FD267400201A
:103AD000607410223946204600F0EBF9FCF744FBF5
:103AE000804604F11401281DFFF76FFC4046FCF7E7
:103AF0003FFB2046E3E770B5044600202074FCF746
:103B000033FB054604F11400FFF79DFC2846FCF743
:103B10002FFB2046FFF7BCF970BD70B504460020AE
:103B20002074FCF721FB054604F11400FFF78BFC21
:103B30002846FCF71DFB70BD024600210AE007483D
:103B400000EB01100078904203D1044800EB011013
:103B50007047491C0729F2DB0020F9E7E800002044
:103B60002DE9F04704460D46904600262846FFF70B
:103B7000E3FF0746FFF75AF97E6802E0A6F114005A
:103B80003668381D8642F9D1FFF760F945F08000AC
:103B9000207410224146204600F08BF9FCF7E4FA2D
:103BA000814604F11401381DFFF70FFC4846FCF76D
:103BB000DFFABDE8F0870146087C00F0800008B11C
:103BC000012070470020FCE72DE9F041FCF7CCFA1A
:103BD00007461848008838BB17480068FDF7B0FB57
:103BE000461E164850F83600A0F11C041448006820
:103BF000844218D013490E701148056804601248B9
:103C0000007850B904F1240105F12400FCF7B3FA5F
:103C10003846FCF7ADFABDE8F08104F1240105F166
:103C20002400FCF7A8FA00BF3846FCF7A1FA00BF51
:103C3000F1E700005801002064010020E825002081
:103C40005C01002060010020CC00002070B504461B
:103C5000FCF78AFA054614F83C0F20F00F0040F0FC
:103C60000100207062783C3C0A4B03EBC20004F177
:103C70001C014268116042684A604160086000BFF0
:103C80000549206C09680843034908602846FCF789
:103C90006FFA70BDE82500206401002070B504466D
:103CA000FCF762FA054604F11C00D0E900215160DE
:103CB000D0E9001211604060006000BF94F83D1030
:103CC000094A02EBC1000168814201D1012100E0F3
:103CD000002129B10548216C006888430349086028
:103CE0002846FCF745FA70BDE82500206401002055
:103CF0002DE9F04105460E46174629460220FFF7FA
:103D0000D0FE044614B92046BDE8F0812046FFF7F6
:103D100032FBA68467742046F6E72DE9F04104469D
:103D20000D4616461F462A4602212046FFF718FF79
:103D30002046FFF720FBA68467740020BDE8F081D1
:103D400070B504460025FCF70FFA064604F11C0086
:103D5000FFF757FB28B904F11C00FFF7B3FA012560
:103D600002E0A08C401CA0843046FCF701FA012D33
:103D700001D1FFF729FF002070BD73B50546FCF7A0
:103D8000F3F90646A88C002806DDA88C401EA884FE
:103D90003046FCF7EDF928E0019828B93046FCF7E9
:103DA000E7F96FF001007CBD00F0C2FA0446002084
:103DB000A0636A7C214605F11C00FFF7A6FA019872
:103DC000002809DD01AA002104F1540000F0CAFB1B
:103DD00004F1540000F024FC3046FCF7C9F9FFF769
:103DE000F3FEA06B08B1A06BDDE70020DBE700006D
:103DF00008B509A0FFF7C8FA0AA0FFF7C5FA12A094
:103E0000032301221946009012A0FFF7BDFA19A062
:103E1000FFF7BAFA08BD00000A205C207C202F0AB8
:103E2000000000002D205254202D2020202020545E
:103E30006872656164204F7065726174696E672095
:103E400053797374656D0A004175672032392032E9
:103E500030323400202F207C205C202020202025A0
:103E6000642E25642E2564206275696C6420257398
:103E70000A0000002032303036202D203230313917
:103E800020436F7079726967687420627920727458
:103E90002D746872656164207465616D0A000000AC
:103EA00001460A4600E0521C10780028FBD1501A47
:103EB000704770B50346A2B118460C4600BF14F80F
:103EC000016B00F8016B3EB902E0002500F8015BD0
:103ED000551E2A1EF9D102E0551E2A1EEFD100BF41
:103EE00000BF184670BD00002DE9F04105460E46A2
:103EF000E81C20F0030726F00308B8F1180F09D9D1
:103F0000A8F11800B84205D3A8EB070018381E49DD
:103F1000086006E0324629461CA0FFF735FABDE8E6
:103F2000F0812948076004684FF4F5502080164856
:103F300000680C3060600020A060608022496068EA
:103F400009680844214908604FF4F5500968088061
:103F500001201E49096848800B4800680C301B4945
:103F600009684860084800680C301849096888608A
:103F70000023012216A11848FFF7CFFE124800685F
:103F80001649086000BFCAE7DC0000206D656D209F
:103F9000696E69742C206572726F72206265676940
:103FA0006E206164647265737320307825782C20EC
:103FB000616E6420656E6420616464726573732051
:103FC000307825780A000000D0000020D4000020BE
:103FD0006865617000000000C0250020D800002046
:103FE00010B500200B490880002405E00A4901EBC8
:103FF000C400FFF7E4F9641C202CF7DB1F200749FD
:104000000870002006490860064908600648FFF766
:10401000D6F910BD58010020E825002060010020DD
:104020005C010020640100206801002070B5084890
:104030000068FDF785F9451E064850F83500A0F1E7
:104040001C040548046004F12400FCF7C2F870BDAC
:1040500064010020E82500205C01002010B5002448
:1040600005E0044901EBC400FFF7ACF9641C002C27
:10407000F7D010BD7001002070472DE9F0410446D3
:104080000E4615463EB3012E2AD0022E2CD1FCF747
:104090006BF8074694F83C0000F00F0001280ED1A1
:1040A0002046FFF7FBFD287884F83D0094F83D108A
:1040B0000120884020642046FFF7C8FD07E02878EB
:1040C00084F83D0094F83D10012088402064384673
:1040D000FCF74EF809E0204600F052F9BDE8F08107
:1040E000204600F02DF8F9E700BF00BF0020F5E7FB
:1040F0002DE9FF5F06460F4690461D46DDE90EABF3
:1041000031460120FFF7CDFC8146B9F1000F03D104
:10411000002004B0BDE8F09F2846FFF7A7F9044649
:1041200024B94846FFF7E7FC0020F2E743463A4649
:10413000314648468DE8300CFDF778F94846E8E707
:1041400070B5044694F83C0000F00F0010B1204612
:10415000FFF7A4FD04F1540000F03BFA042084F8BA
:104160003C00FCF701F8054604F11C010348FFF789
:1041700033F92846FBF7FCFF002070BD68010020E2
:1041800070B513480468FBF7EFFF05462046FFF7BC
:1041900085FD042084F83C0004F1540000F019FA75
:1041A0002046FFF708FD012806D1D4F8880018B989
:1041B0002046FFF7B2FC04E004F11C010548FFF7BC
:1041C0000BF92846FBF7D4FFFFF7FEFC70BD00009B
:1041D0005C0100206801002001E000F001F8FCE72C
:1041E00070B53CE0FBF7C0FF0546FDF7DFF840B3D4
:1041F0001E480068A0F11C0404F11C00D0E9002155
:104200005160D0E9001211604060006000BFFEF70D
:104210000DFED4F8880018B12046D4F888108847DD
:104220002046FFF7C8FC012808D12046FFF775FC9F
:10423000FEF70CFE2846FBF79BFF70BDFEF706FE5F
:1042400003E02846FBF794FFF7E72846FBF790FFCB
:10425000206BFEF71DFE2046FFF74DFC00BFFDF76B
:10426000A5F80028BED100BFE7E7000068010020E4
:104270001FB520201F21C200074BCDE90032CDE938
:1042800002100023054A06A1074800F00FF806486F
:1042900000F076F81FBD000040240020D94100083E
:1042A0007469646C65000000B02300202DE9FF5F95
:1042B00005460C4616461F46DDE910ABDDE90E89C2
:1042C000224601212846FFF74BFC3B463246214659
:1042D00028468DE8000FFDF7A9F804B0BDE8F09F6F
:1042E00070B50446204600F0C5F80546284600F0A3
:1042F00025F870BD70B5044694F83C0000F00F003E
:10430000022802D04FF0FF3070BDFBF72DFF0546AD
:1043100004F11C00FFF7A0F804F1540000F0FCF9D0
:104320002846FBF725FF2046FFF790FC0020EBE72F
:1043300001480068704700005C01002031B5FBF7C0
:1043400013FF05460D480468204600F02FF86A4622
:10435000002104F1540000F005F904F1540000F0CC
:104360005FF92846FBF704FFFFF72EFCA06B801CCB
:1043700008B90020A063002038BD00005C010020C7
:1043800010B504463C34A078607061780120884004
:104390006060022004F83C092046FFF7ABFFFFF7FE
:1043A000C7FF08B1FFF710FC002010BD70B5044630
:1043B00094F83C0000F00F00012802D04FF0FF30CD
:1043C00070BDFBF7D1FE054694F83C0020F00F00CD
:1043D00040F0020084F83C002046FFF75FFC04F147
:1043E000540000F099F92846FBF7C2FE0020E7E7E9
:1043F00070B5044625466FF00100A86305F11C0066
:10440000FFF72AF82846FFF721FCFFF7DDFB70BD18
:1044100070B5FBF7A9FE05461448046894F83C0003
:1044200000F00F0001281CD1D4E90710814218D0F8
:1044300004F11C00FFF710F894F83D200C4B03EB3F
:10444000C20004F11C014268116042684A60416088
:10445000086000BF2846FBF78BFEFFF7B5FB002086
:1044600070BD2846FBF784FE0020F9E75C010020C0
:10447000E82500200146002902DA4FF0FF3014E061
:104480004FF47A7291FBF2F24FF47A7302FB03F06D
:104490001A4691FBF2F302FB13124FF47A735A435C
:1044A00002F2E73292FBF3F21044704701480068D1
:1044B00070470000C800002010B50A480068401C82
:1044C00008490860FFF734FF0446206D401E206550
:1044D000206D18B9E06C2065FFF79AFF00F004F832
:1044E00010BD0000C800002070B5FFF7DFFF0546D3
:1044F000FBF73AFE064628E019480068A0F11C04C4
:10450000206B281A6FF0004188421DD22046FCF72C
:10451000F0FFD4E909108847FFF7C8FF0546607C23
:1045200000F0020058B1607C00F0010038B1607CFE
:1045300020F001006074204600F072F805E0607C15
:1045400020F00100607400E004E00548FEF761FF20
:104550000028D1D000BF3046FBF70AFE70BD000036
:1045600070010020034649B1012904D0022908D076
:10457000032910D10AE0D86A10600CE01068D862F4
:1045800009E0587C20F00200587404E0587C40F0A8
:104590000200587400BF00BF002070472DE9F843A7
:1045A00004460E4617469846DDF8209021460A201C
:1045B000FFF777FA054615B90020BDE8F8834346B2
:1045C0003A4631462846CDF80090FCF771FF284660
:1045D000F3E770B50446FBF7C7FD05462046FCF738
:1045E00088FF2846FBF7C4FD2046FFF796FA002017
:1045F00070BD2DE9F84307460C4615461E46DDE919
:10460000088922460A213846FFF7AAFA434632466D
:1046100029463846CDF80090FCF74AFFBDE8F883FC
:104620002DE9F8430546FBF79FFD80462846FCF739
:1046300060FF687C20F0010068744046FBF798FD3D
:10464000FFF734FFE96A08442863FBF78DFD8046D5
:104650002F4F009700242AE019E05DF8242011680C
:104660001C2202EBC402881A026B2B6BD21A00D1F7
:1046700008E0026B2B6BD21A6FF000439A4200D213
:104680000CE000BF5DF8240000684DF824005DF8E0
:10469000240007EBC40149688842DED100BF2CB179
:1046A0005DF824000830611C4DF82100641C002CCA
:1046B000D2D018480068401C1649086008460668B1
:1046C00005F11C010098FEF78EFE022412E006F0B0
:1046D000030060B9C4F1010305F11C0202EBC30140
:1046E000C4F101025DF82200FEF77DFE00E003E068
:1046F000B608641C012CEAD900BF687C40F00100B8
:1047000068744046FBF734FD0020BDE8F8830000E4
:10471000700100207801002070B50446607C00F034
:10472000010010B94FF0FF3070BDFBF71DFD0546CD
:104730002046FCF7DEFE2846FBF71AFD607C20F0E1
:10474000010060740020EFE72DE9FF4F89B080463B
:1047500044460A9808EB0006464504D24FF0FF365F
:10476000A6EB08000A906FE10B980078252806D088
:10477000B44202D20B9800782070641C61E10025DD
:1047800026E00B98401C0B900B9800782D2802D146
:1047900045F010051CE00B9800782B2802D145F05D
:1047A000040515E00B980078202802D145F0080593
:1047B0000EE00B980078232802D145F0200507E091
:1047C0000B980078302802D145F0010500E000E0A8
:1047D000D7E700BF4FF0FF370B98007830380A2832
:1047E00004D20BA800F0A4F907460EE00B9800785D
:1047F0002A280AD10B98401C0B900C9880C80C906A
:10480000002F02DA7F4245F010054FF0FF390B9878
:1048100000782E281CD10B98401C0B900B98007828
:1048200030380A2804D20BA800F082F981460AE049
:104830000B9800782A2806D10B98401C0B900C98F6
:1048400050F8049B0C90B9F1000F01DA4FF0000909
:10485000002004900B980078682803D00B9800780B
:104860006C2805D10B98007804900B98401C0B9095
:104870000A2005900B9800786F2875D00CDC63280F
:1048800013D004DC252870D058286FD18DE064281F
:104890006DD06928F9D18FE070286AD0732825D0AF
:1048A000752878D07828F0D182E005F0100040B962
:1048B00004E0B44201D220202070641C781E071E40
:1048C000F7DC0C9810F8041B0C90C8B20790B442A7
:1048D00001D207982070641C04E0B44201D2202069
:1048E0002070641C781E071EF7DCAAE00C98006894
:1048F00006900C98001D0C90069808B95CA00690D4
:104900000698FFF7CDFA8346B9F1000F02DDCB45DB
:1049100000DDCB4605F0100048B904E0B44201D2F6
:1049200020202070641C38467F1E5845F6DC00208D
:1049300008900BE0B44202D2069800782070641C04
:104940000698401C06900898401C08900898584506
:10495000F0DB04E0B44201D220202070641C384611
:104960007F1E5845F6DC6CE01CE015E028E022E0F4
:10497000FFE7781C10B9082745F00105CDE900795B
:1049800002950C9804C8102331460C902046FEF77F
:104990003BF9044655E012E0B44201D225202070D4
:1049A000641C4EE0082005901DE045F0400500BF66
:1049B0001020059017E000BF45F0020500BF12E08F
:1049C000B44201D225202070641C0B98007830B1CD
:1049D000B44202D20B9800782070641C02E00B985D
:1049E000401E0B902DE000BF04986C2807D10C9856
:1049F00050F804AB0C9005F00200B8B116E0049832
:104A000068280BD10C9830F8041B1FFA81FA0C901F
:104A100005F0020050B10FFA8AFA07E00C9850F83E
:104A200004AB0C9005F0020000B100BFCDE90079A5
:104A30000295524631462046059BFEF7E5F80446AE
:104A400000BF0B98401C0B900B98007800287FF457
:104A50008BAE0A9838B1B44202D20020207002E036
:104A6000002006F8010CA4EB08000DB0BDE8F08FA3
:104A7000284E554C4C2900000020704700207047FC
:104A8000002070470020704710B5FBF76DFBFEF764
:104A900077FAFFF7ADF9FFF7E1FAFFF7A1FAFEF7B2
:104AA0007FF9FFF7E9FAFFF7E3FBFFF7BFFA002012
:104AB00010BD000010B5044601210248FBF73FFD80
:104AC00010BD00000024014070B5044609A0FEF7A7
:104AD0005BFCFDF7D5FF012802D12046FDF7E2FE81
:104AE000FCF7FAFD05462246294603A0FEF74CFCDA
:104AF00070BD00000A00000025732573000000004F
:104B000070B5044625680CE0A5F11C06314606A0E8
:104B1000FEF73AFC2868A04202D004A0FEF734FC5D
:104B20002D68A542F0D170BD257300002F00000054
:104B30000146002009E00B685A1C0A601A7800EB55
:104B4000800302EB4302A2F130000A681278303A87
:104B50000A2AF0D3704710B503461A4601E0521CEA
:104B6000491C107828B1087818B110780C78A04248
:104B7000F5D0D01A10BD000008B50020009012E05A
:104B80004FF0FF3108480068FEF727FF07484088CC
:104B9000009005480068FEF7CFFE022269460448EF
:104BA0000068FEF768FEEBE7B4000020C0000020BC
:104BB000B800002010B51EA0FEF7E6FB20480188D3
:104BC00020A0FEF7E1FB1E48008800F0010010B1B4
:104BD00022A0FEF7D9FB1A48008800F0020010B1AD
:104BE00021A0FEF7D1FB1648008800F0040010B1A8
:104BF00020A0FEF7C9FB1248008800F0080010B1A1
:104C00001EA0FEF7C1FB0E48008800F4807010B1B2
:104C10001CA0FEF7B9FB0A48008800F4007010B130
:104C20001BA0FEF7B1FB05A0FEF7AEFB10BD000018
:104C30007573616765206661756C743A0A000000DF
:104C40002AED00E05343425F434653525F554653BB
:104C5000523A30782530325820000000554E4445F5
:104C600046494E5354522000494E565354415445E0
:104C700020000000494E5650432000004E4F435044
:104C800020000000554E414C49474E45442000004D
:104C900044495642595A45524F20000022E04FF0F5
:104CA000FF3111480068FFF768F80446CCB90F4996
:104CB0000FA0FEF769FB16A10C48FBF7FFFA08B13D
:104CC000FBF708FD14A10948FBF7F8FA08B1FBF758
:104CD000F7FC4FF480710548FBF7D9FA0020104922
:104CE000088000BFDBE700002C000020A42100208A
:104CF0000A5573617274322068617320726563654E
:104D00007669656420646174613A2025732E0A0017
:104D1000426565704F6E0000426565704F666600C3
:104D2000BC00002010B5FFF763F8002010BD5F5FE6
:104D3000636D645F426565704F6E005F5F636D64B5
:104D40005F426565704F6666005F5F636D645F47D5
:104D50006574436869704944005F5F636D645F47D1
:104D6000657443686970466C617368436170616320
:104D700069747900000001000200010003000100D5
:104D80000200010004000100020001000300010014
:104D90000200010005000100020001000300010003
:104DA00002000100040001000200010003000100F4
:104DB00002000100060001000200010003000100E2
:104DC00002000100040001000200010003000100D4
:104DD00002000100050001000200010003000100C3
:104DE00002000100040001000200010003000100B4
:104DF00002000100070001000200010003000100A1
:104E00000200010004000100020001000300010093
:104E10000200010005000100020001000300010082
:104E20000200010004000100020001000300010073
:104E30000200010006000100020001000300010061
:104E40000200010004000100020001000300010053
:104E50000200010005000100020001000300010042
:104E60000200010004000100020001000300010033
:104E7000020001003031323334353637383961625F
:104E80006364656600303132333435363738394142
:104E90004243444546006C6973745F6D656D0068FC
:104EA000656C6C6F0076657273696F6E005F5F632F
:104EB0006D645F76657273696F6E006C6973745FA1
:104EC000746872656164005F5F636D645F6C6973D1
:104ED000745F746872656164006C6973745F736594
:104EE0006D005F5F636D645F6C6973745F73656DA4
:104EF000006C6973745F6576656E74005F5F636DE7
:104F0000645F6C6973745F6576656E74006C697359
:104F1000745F6D75746578005F5F636D645F6C6965
:104F200073745F6D75746578006C6973745F6D611F
:104F3000696C626F78005F5F636D645F6C69737446
:104F40005F6D61696C626F78006C6973745F6D731B
:104F5000677175657565005F5F636D645F6C69732C
:104F6000745F6D73677175657565006C6973745FE7
:104F700074696D6572005F5F636D645F6C69737403
:104F80005F74696D6572006C697374005F5F636D57
:104F9000645F68656C70005F5F636D645F70730071
:104FA0005F5F636D645F66726565000020000000EE
:104FB0007573617274325F726563765F746872656F
:104FC000616400006C65640074656D7065725F6398
:104FD0006865636B6F7574006272696768745F639C
:104FE0006865636B6F757400252D2A2E73207072AF
:104FF0006920207374617475732020202020207331
:10500000702020202020737461636B2073697A659F
:10501000206D61782075736564206C6566742074FA
:1050200069636B20206572726F720A00854A0008FE
:105030007D4A00088D060008E5050008794A000849
:10504000450A0008710C0008BD0C0008CD0E0008D0
:1050500085170008814A00082E4D0008D506000873
:105060003B4D0008C1060008494D0008F50900083D
:10507000594D0008B9090008964E00084D20000857
:105080009F4E0008691C0008A54E0008254D000829
:10509000AD4E0008254D0008BB4E00085124000805
:1050A000C74E000851240008D94E000819230008F3
:1050B000E24E000819230008F14E0008F91C000810
:1050C000FC4E0008F91C00080D4F000809220008DA
:1050D000184F000809220008294F0008F11E000897
:1050E000364F0008F11E0008494F0008C52000088F
:1050F000574F0008C52000086B4F000835260008F0
:10510000764F000835260008874F0008A11C0008CC
:105110008C4F00080D2A0008974F0008CB16000896
:10512000A04F0008BD1600084851000800000020EC
:10513000A401000078030008D4510008A401002055
:10514000CC2900009C1300081184A24A04680901BC
:10515000020304060708090C691005140204060876
:1051600013C44F1408891C491C2201320B320A1A3D
:10517000B0185B9D4C183A021B39181AD8188B21AD
:105180001518190339181AC8188B794B185A0318AF
:105190001AAC180148298422EC2A20044A9067118D
:1051A0001AFC0C290432282974130C012A20043219
:1051B0002C32041A1C0C2904292032052A2C1C1913
:1051C00004323832061A3C0C390459B01A4C0C29F6
:0451D00004024F3452
:0400000508000131BD
:00000001FF
