:020000040800F2
:10000000402B002045010008610800080F0200088D
:100010005D080008350400083B0F000800000000E0
:10002000000000000000000000000000FD090008C2
:100030004504000800000000970100085D0B00085F
:100040005F0100085F0100085F0100085F01000810
:100050005F0100085F0100085F010008A9040008B3
:100060005F0100085F0100085F0100085F010008F0
:100070005F0100085F0100085F0100085F010008E0
:100080005F0100085F0100085F0100085F010008D0
:100090005F0100085F0100085F0100085F010008C0
:1000A0005F0100085F0100085F0100085F010008B0
:1000B0005F0100085F0100085F0100085F010008A0
:1000C0005F0100085F0100085F0100085F01000890
:1000D0005F010008E10C0008110D0008910D0008F7
:1000E000490400085F0100085F0100085F01000883
:1000F0005F0100085F0100085F0100085F01000860
:100100005F0100085F0100085F0100085F0100084F
:100110005F0100085F0100085F0100085F0100083F
:100120005F0100085F0100085F0100085F0100082F
:10013000DFF80CD000F00EF900480047CF030008AC
:10014000402B00200648804706480047FEE7FEE7B0
:10015000FEE7FEE7FEE7FEE7FEE7FEE7FEE7FEE777
:100160006D0B000831010008EFF3108072B6704784
:1001700080F310887047334A1368012B04D04FF086
:1001800001031360304A1060304A116030484FF06C
:10019000805101607047EFF3108272B62948016800
:1001A00091B14FF0000101602748016829B1EFF3D8
:1001B000098121E9F00F0068016024490968096894
:1001C000B1E8F00F81F3098882F310884EF0040E35
:1001D00070471E4908601C494FF00000086019492B
:1001E0004FF0010008601B484FF47F01D0F8002059
:1001F00041EA0201016016484FF080510160164843
:100200000068006880F3088861B662B670471EF027
:10021000040F0CBFEFF30880EFF3098020E9F00F23
:1002200040F804ED1EF0040F0CBF80F3088880F343
:10023000098800B502F084FD5DF804EB4EF0040E71
:100240007047000058010020500100205401002098
:1002500004ED00E020ED00E008ED00E040EA0103DD
:100260009B0703D009E008C9121F08C0042AFAD26C
:1002700003E011F8013B00F8013B521EF9D2704730
:10028000D2B201E000F8012B491EFBD270470022D8
:10029000F6E710B513460A4604461946FFF7F0FF85
:1002A000204610BD421E12F8013F002BFBD111F871
:1002B000013B02F8013B002BF9D1704730B50546F0
:1002C0002A460B4612F8010B13F8014B08B1A04265
:1002D000F8D01CB1002802D06D1CF1E7284630BDD3
:1002E00010B5044604E00B7800F8013B03B1491C4B
:1002F000521EF8D2204610BD421C10F8011B0029E6
:10030000FBD1801A704710B5002200E0521C835CBC
:100310008C5CA34201D1002BF8D1D8B2E1B2401AD3
:1003200010BD034611F8012B00F8012B002AF9D16A
:100330001846704730B505460020034600E05B1CB8
:10034000934205D2EC5CC85C201A01D1002CF6D196
:1003500030BD0000064C074D06E0E06840F00103A8
:1003600094E8070098471034AC42F6D3FFF7E4FE58
:10037000444B0008644B000870B58C1810F8015B02
:1003800015F0070301D110F8013B2A1106D110F82E
:10039000012B03E010F8016B01F8016B5B1EF9D132
:1003A0002B0705D40023521E0DD401F8013BFAE7B8
:1003B00010F8013BCB1A921C03E013F8015B01F823
:1003C000015B521EF9D5A142D8D3002070BD10B5F3
:1003D00004F09EF8002010BD08B50121082000F0AF
:1003E00093FA10208DF803000001ADF800000320FF
:1003F0008DF802006946044800F042F94FF480711C
:10040000014800F0CAF908BD000C014010B54FF4D6
:100410008071024800F0C1F910BD0000000C0140DD
:1004200010B54FF48071024800F0B5F910BD00001E
:10043000000C014000BFFEE710B54FF4A06000F0D3
:1004400049FA10BD7047000010B54FF4006000F08D
:1004500041F801280BD106A4042221461148006866
:1004600003F091F84FF4006000F02EF800BF10BDCB
:100470004B6579313120686173206265656E20704B
:1004800075736865642E2065787465726E616C2082
:10049000696E7465727570742074726967676572CD
:1004A00065642E003000002008B501200090012274
:1004B00069460448006803F066F8022000F004F87A
:1004C00008BD0000300000200149086070470000AE
:1004D0001404014001460020034A12680A400AB190
:1004E000012000E00020704714040140002123494E
:1004F0008279002A3AD00A46126803689A430B466A
:100500001A600A1D126803689A430B1D1A6002796B
:1005100011440A6803681A430A60184A08321268CC
:1005200003689A43154B08331A601A1D1268036852
:100530009A43124B0C331A604279102A0ED11A1FBB
:10054000126803681A430D4B08331A601A1D1268AB
:1005500003681A43094B0C331A600DE007494279CE
:1005600011440A6803681A430A6005E002791144DD
:100570000A6803689A430A6070470000000401405B
:1005800008B50121092000F0BFF948208DF80300CB
:1005900040F60200ADF8000003208DF80200694625
:1005A000014800F06DF808BD000C01401CB5FFF7D4
:1005B000E7FF00BF28208DF8040000208DF805001B
:1005C00001208DF806008DF8070001A800F04AF917
:1005D00007208DF8040000208DF8050002208DF81A
:1005E000060001208DF8070001A800F03BF900BFCC
:1005F00000BF0B21012000F023F800208DF804003B
:100600000C208DF805004FF40060009001208DF85B
:1006100006006846FFF76AFF0121084600F010F85F
:1006200000208DF804000C208DF8050002200090B9
:1006300001208DF806006846FFF758FF00BF1CBD7B
:1006400030B500228B071C0F0F2303FA04F20B4B6B
:100650008C1053F824309343084C8D1044F8253007
:1006600023468C1053F824308C07240F00FA04F42E
:100670002343024C8D1044F8253030BD0800014062
:100680002DE9F04102460025002600200023002429
:10069000002791F803C00CF00F0591F803C00CF08F
:1006A000100CBCF1000F03D091F802C04CEA050514
:1006B00091F800C0BCF1000F31D0146800202BE08D
:1006C0004FF0010C0CFA00F3B1F800C00CEA03067D
:1006D0009E4220D183004FF00F0C0CFA03F7BC436D
:1006E00005FA03FC4CEA040491F803C0BCF1280F9E
:1006F00006D14FF0010C0CFA00FCC2F814C00AE05D
:1007000091F803C0BCF1480F05D14FF0010C0CFA71
:1007100000FCC2F810C0401C0828D1D31460B1F806
:1007200000C0BCF1FF0F34DD546800202EE000F162
:10073000080C4FF0010808FA0CF3B1F800C00CEAFD
:1007400003069E4221D183004FF00F0C0CFA03F7F1
:10075000BC4305FA03FC4CEA040491F803C0BCF165
:10076000280F05D100F1080C08FA0CF8C2F8148023
:1007700091F803C0BCF1480F07D100F1080C4FF00D
:10078000010808FA0CF8C2F81080401C0828CED3E3
:100790005460BDE8F081416170470161704700001D
:1007A00010B5054800680549886003480838018885
:1007B00003A002F071FC10BDE8F7FF1F78230020B2
:1007C0000A4368697020466C6173682043617061F8
:1007D000636974793A25644B200A000010B50A4811
:1007E00000680A4908600848001F00684860064819
:1007F000083800688860084603680268016804A039
:1008000002F04AFC10BD0000F0F7FF1F7823002023
:100810000A4368697049443A3078253038582D25A4
:100820003038582D253038580A00000008B501210D
:10083000042000F069F810208DF803000320ADF8C3
:1008400000008DF8020069460148FFF719FF08BD56
:1008500000080140C2684A40C260704700BFFEE71E
:100860007047000070B5002100230F22C47804B344
:10087000154C246804F4E064C4F5E064210AC1F175
:100880000403CA40447804FA03F1847814402143F5
:1008900009010E4C0678A155047804F01F050124C7
:1008A000AC4005786D11AD0005F1E025C5F80041BB
:1008B00009E0047804F01F050124AC40044D0678DB
:1008C000761145F8264070BD0CED00E000E400E034
:1008D00080E100E002490143024A116070470000D4
:1008E0000000FA050CED00E029B1064AD269024386
:1008F000044BDA6104E0034AD2698243014BDA61B6
:10090000704700000010024029B1064A9269024374
:10091000044B9A6104E0034A92698243014B9A6155
:10092000704700000010024030B500210022002472
:1009300000232D4D6D6805F00C0121B1042905D06F
:10094000082923D105E0294D056022E0274D0560E7
:100950001FE0254D6D6805F47012234D6D6805F498
:100960008034022505EB92421CB9214D55430560A8
:100970000BE01D4D6D6805F400351DB11C4D554350
:10098000056002E0194D5543056002E0174D056012
:1009900000BF00BF144D6D6805F0F0010909154D49
:1009A0006B5C0568DD4045600F4D6D6805F4E061E6
:1009B000090A104D6B5C4568DD4085600A4D6D6825
:1009C00005F46051C90A0B4D6B5C4568DD40C5609C
:1009D000054D6D6805F44041890B074D6B5CC5689A
:1009E000B5FBF3F5056130BD0010024000127A003E
:1009F00000093D001400002024000020704710B5BD
:100A000000F002F810BD00000CB50020019000902D
:100A10003348006840F480303149086000BF3048F6
:100A2000006800F4003000900198401C019000988C
:100A300018B90198B0F5A06FF1D12948006800F409
:100A4000003010B10120009001E0002000900098DB
:100A5000012843D12348006840F010002149086074
:100A60000846006820F0030008600846006840F06F
:100A7000020008601A484068194948600846406802
:100A800048600846406840F4806048600846406816
:100A900020F47C1048600846406840F4E810486044
:100AA0000846006840F08070086000BF0C4800688D
:100AB00000F000700028F9D00948406820F00300D9
:100AC000074948600846406840F00200486000BF9F
:100AD0000348406800F00C000828F9D10CBD000064
:100AE000001002400020024010B5FFF7A5FC00F006
:100AF00005F8FFF79BFE00F023FA10BD30B514484F
:100B000000684FF47A72B0FBF2F1B1F1807F00D34C
:100B10001DE021F07F40401E4FF0E0225061501751
:100B20000F22002807DA13071D0E0A4B00F00F04EE
:100B3000241F1D5503E013071C0E074B1C5400BF58
:100B400000204FF0E02290610720106100BF30BD0F
:100B50000000002018ED00E000E400E010B502F015
:100B600019FA03F007FA02F025FA10BD10B5134880
:100B7000006840F0010011490860084640681049CB
:100B800008400E494860084600680E4908400B4975
:100B900008600846006820F4802008600846406825
:100BA00020F4FE0048604FF41F008860FFF727FF25
:100BB0004FF000600449086010BD000000100240C2
:100BC0000000FFF8FFFFF6FE08ED00E07CB5002214
:100BD00011462AA002F044FE2C490860084600682D
:100BE00010B12BA002F058FA00230A22202130A0D5
:100BF00002F0FDFB304908602448006810B12FA0C6
:100C000002F04AFA00242EE004EB4400324901EBE2
:100C1000C000406904EB44012F4A02EBC101097C8A
:100C200004EB4405164606EBC505CDE90010EB685C
:100C300004EB440506EBC505AA6804EB440506EB86
:100C4000C505696804EB440556F8350002F0CDFF90
:100C5000224908600846006818B10846006803F099
:100C6000EDF8601CC4B204EB44001B4A52F830108B
:100C700018A0FFF748FB0028C6D17CBD75736172D0
:100C800074325F726563765F73656D002C000020BF
:100C90000AD0C5BAC5C1BF7573617274325F72651F
:100CA00063765F73656DB4B4BDA8B3C9B9A60A0015
:100CB0006D73675F6D710000300000200ACFFBCFBD
:100CC000A2B6D3C1D06B65795F6D71B4B4BDA8B362
:100CD000C9B9A60A00000000380000203400002036
:100CE00010B52021094800F080F818B120210748EC
:100CF00000F066F80821054800F077F8012803D1D4
:100D00000821024800F05CF810BD000000380140E6
:100D100010B520211A4800F068F880B1184800F09A
:100D200003F9C4B2174801880088401C154A108096
:100D3000154844542021124800F042F800BF082111
:100D40000F4800F052F8012803D108210C4800F0A8
:100D500037F810210A4800F048F801280FD1002286
:100D6000084801880088401C064B188006484254F9
:100D70000648006802F09CFD014800F0D5F810BD5F
:100D8000004400409A000020782200202C0000201F
:100D900010B52021094800F028F818B12021074893
:100DA00000F00EF80821054800F01FF8012803D1D3
:100DB0000821024800F004F810BD0000004800407F
:100DC00001F40072B2F5007F00D100BFCA43028077
:100DD000704721B1828942F40052828104E0828905
:100DE0004DF6FF731A408281704702460020B1F52C
:100DF000007F00D100BF13880B400BB1012000E041
:100E000000207047F0B5034600240026002500208E
:100E100040F66A17B94200D100BF1846C1F3421428
:100E200001F01F06012707FA06F5012C01D10C304D
:100E300004E0022C01D1103000E014301AB1076830
:100E40002F43076002E00768AF430760F0BD000072
:100E50002DE9F04786B005460E460024A24600BFA5
:100E6000A1460027B08900B100BF2F462C8A4CF65E
:100E7000FF700440F08804432C82AC894EF6F310D6
:100E80000440B08831890843718908430443AC8128
:100E9000AC8A4FF6FF400440B0890443AC8201A8FD
:100EA000FFF742FD1F48874202D1DDF810A001E0A4
:100EB000DDF80CA0A88900F4004040B10AEBCA009C
:100EC00000EB0A1031684900B0FBF1F807E00AEBCB
:100ED000CA0000EB0A1031688900B0FBF1F8642009
:100EE000B8FBF0F004012009642101FB1089A889F6
:100EF00000F4004040B1322000EBC900B0FBF1F03B
:100F000000F00700044308E0322000EB09106421E0
:100F1000B0FBF1F000F00F0004432C8106B0BDE8F7
:100F2000F08700000038014001468888C0F30800BF
:100F30007047C1F308028280704700BFFEE70000DF
:100F400000B587B001210420FFF7DEFC01218803F2
:100F5000FFF7DAFC18208DF81B004FF40070ADF895
:100F6000180003208DF81A0006A94248FFF788FBF5
:100F700004208DF81B000002ADF8180003208DF846
:100F80001A0006A93B48FFF77BFB4FF4E1300290C3
:100F90000020ADF80C00ADF80E00ADF810000C20EC
:100FA000ADF812000020ADF8140002A93248FFF796
:100FB0004FFF01213048FFF70CFF40212E48FFF77B
:100FC000FFFE01210420FFF79FFC01214804FFF7E9
:100FD0008BFC18208DF81B000420ADF818000320AE
:100FE0008DF81A0006A92348FFF74AFB04208DF864
:100FF0001B000820ADF8180003208DF81A0006A980
:101000001C48FFF73DFB4FF4E13002900020ADF8A3
:101010000C00ADF80E00ADF810000C20ADF8120079
:101020000020ADF8140002A91448FFF711FF262094
:101030008DF8040001208DF805008DF806008DF86C
:10104000070001A8FFF70EFC012240F225510B48D2
:10105000FFF7D8FE012240F224410848FFF7D2FEF4
:1010600001210648FFF7B5FE40210448FFF7A8FE1E
:1010700007B000BD000801400038014000440040B6
:10108000014609B900207047C8B220B1C8B20E4A63
:10109000105C401CF7E701F47F4028B10A48C1F317
:1010A0000722805C0930EEE701F47F0028B1064892
:1010B000C1F30742805C1130E5E7034800EB1160A3
:1010C00000781930DFE70000AC47000802E008C8EC
:1010D000121F08C1002AFAD170477047002001E0B2
:1010E00001C1121F002AFBD17047000003490868A4
:1010F000884201D0012070470020FCE73C0100201D
:101100002DE9F04389B0064688469146002400E068
:10111000641C305D202804D0305D092801D044458E
:10112000F6D324B94FF0FF3009B0BDE8F083214673
:10113000304601F0C5FA054615B94FF0FF30F3E728
:10114000202101A8FFF7A3F801AA4146304601F08B
:1011500021FB074617B94FF0FF30E5E701A93846F4
:10116000A847C9F800000020DEE700002DE9FC5F79
:1011700004468B4615461E46DDE90C9ADDE90E78DD
:1011800004F11C004060006000BF24346560A6606C
:10119000C4F80C90C4F810A02321D4E9030202F093
:1011A00002F9D4E9033C63441A1F0F4BD4E901014F
:1011B00001F0CAFE2060A77667760020E061C4F8DF
:1011C0002880C4F82C80606120766066A066243C8C
:1011D00000902346054A2146019004F1540002F094
:1011E0004BFF0020BDE8FC9F3D3C0008AD3E0008E1
:1011F0002DE9F04704460E4617469846DDF8209044
:1012000084F81190607C20F0010060746662A7622F
:1012100000202063C4F82C80002506E004F11C01A6
:1012200001EBC50001F056FF6D1C012DF6DBBDE89A
:10123000F08710B50246002001460EE002F11C03C3
:1012400003EBC100D0E900436360D0E900342360C0
:101250004060006000BF481C01460129EEDB10BD64
:1012600010B520A001F018FF2148017821A001F05D
:1012700013FF1F48007800F0010010B123A001F017
:101280000BFF1B48007800F0020010B122A001F013
:1012900003FF1748007800F0040010B121A001F00E
:1012A000FBFE1348007800F0080010B121A001F007
:1012B000F3FE0F48007800F0100010B120A001F0FC
:1012C000EBFE0B48007800F0800030B108480F308A
:1012D00001681DA001F0E0FE02E01FA001F0DCFEAD
:1012E00010BD0000627573206661756C743A0A0067
:1012F00029ED00E05343425F434653525F42465359
:10130000523A307825303258200000004942555377
:101310004552522000000000505245434953455267
:1013200052200000494D50524543495345525220E6
:1013300000000000554E53544B455252200000000F
:1013400053544B45525220005343422D3E42464196
:10135000523A253038580A000A00000070B5044699
:101360000D4600F0C3FC002070BD70B504460D466C
:1013700000F0BEFE002070BD10B51448006890F863
:101380002900C0F3400020B9002011490870084628
:1013900010BD1048006838B180220E4801680C4822
:1013A000FEF79EFF0A48F3E701F0F2F920B10AA127
:1013B0000748FEF7B6FF03E009A10548FEF7B1FFB5
:1013C00009A10348FEF76EFF0148E1E77001002024
:1013D000BC260020740100206D736820000000000E
:1013E00066696E73682000003E00000010B501F0D1
:1013F0005FFC10BD0549096891F8291060F34101AF
:10140000024A126882F8291070470000700100201B
:10141000024A1060024A116070470000600100201B
:10142000640100207CB5002517491848FFF7F0FF3C
:101430008021012001F054FB15490860084600682E
:1014400020B914A001F028FE681E7CBD0A201521D9
:101450004FF480630022CDE90010144914A002F07B
:10146000C4FB044600231A4613A10948006802F091
:101470000CFA0120FFF7BEFF1CB115B9204602F09F
:10148000DDFC0020E1E70000444B0008744A00083E
:10149000700100206E6F206D656D6F727920666F30
:1014A00072207368656C6C0A00000000C1140008AB
:1014B000747368656C6C00007368727800000000DB
:1014C000E948006890F8290020F00100401CE64936
:1014D000096881F82900FFF74FFF054601F0DCFDA0
:1014E000C1E1FFF783FF0446002C00DABBE11B2CAF
:1014F00005D10120DC49096881F82800B3E1DA4808
:10150000006890F8280001280DD15B2C05D102203D
:10151000D549096881F82800A5E10020D249096869
:1015200081F8280045E0D048006890F8280002289B
:101530003FD10020CC49096881F82800412C00D116
:1015400091E1422C00D18EE1442C11D1C6480068B3
:10155000B0F87C0058B1C5A001F09EFDC2480068FB
:10156000B0F87C00401EC0490968A1F87C007AE10F
:10157000432C1ED1BC480068B0F87C00BA49096809
:10158000B1F87A10884213DAB7480068B0F87C20C6
:10159000B54800682A30815CB5A001F07DFDB248F5
:1015A0000068B0F87C00401CAF490968A1F87C00D5
:1015B00059E10CB1FF2C00D155E1092C1FD10025B8
:1015C00003E0AAA001F068FD6D1CA7480068B0F810
:1015D0007C00A842F5DCA44800682A3002F0AEFF87
:1015E000A14800682A30FEF787FE80B29E4909684C
:1015F000A1F87A009C490968A1F87C0033E17F2CAE
:1016000001D0082C6ED198480068B0F87C0000B971
:1016100029E195480068B0F87A00401E92490968AF
:10162000A1F87A0090480068B0F87C00401E8E490E
:101630000968A1F87C008C480068B0F87A008A49F3
:101640000968B1F87C1088423FDD874B1B68B3F80E
:101650007A30854E3668B6F87C609A1B824B1B68E0
:10166000B3F87C305B1C804E36682A3699197E4B65
:101670001B68B3F87C607C4B1B682A33F01801F0C0
:1016800071FE002278480068B0F87A107648006849
:101690002A30425474480068B0F87C2072480068D0
:1016A0002A30111873A001F0F7FC6F480068B0F8F9
:1016B0007C5003E06DA001F0EFFC6D1C6A480068EF
:1016C000B0F87A00A842F5DA0BE06CA001F0E4FC77
:1016D000002165480068B0F87A20634800682A3025
:1016E0008154C0E00D2C01D00A2C2BD101F050F810
:1016F000012812D15C48006890F8290000F0010030
:1017000010B15FA001F0C8FC57480068B0F87A102B
:10171000554800682A3000F09DFFFFF72DFE054672
:1017200001F0BAFC5021504800682A30FEF7AFFDA6
:1017300000204D490968A1F87A004B490968A1F8D1
:101740007C0090E048480068B0F87A00502804DB3C
:10175000002045490968A1F87A0043480068B0F8BC
:101760007C0041490968B1F87A10884245DA3E4B5D
:101770001B68B3F87A303C4E3668B6F87C609A1B2A
:10178000394B1B68B3F87C60374B1B682A33F11860
:10179000354B1B68B3F87C305B1C334E36682A36F9
:1017A000981901F0DFFD30480068B0F87C202E4821
:1017B00000682A3084542C48006890F8290000F012
:1017C000010050B128480068B0F87C202648006825
:1017D0002A3011182BA001F05FFC23480068B0F8F4
:1017E0007C5003E021A001F057FC6D1C1E480068EE
:1017F000B0F87A00A842F5DC12E01B480068B0F8A7
:101800007A20194800682A3084541748006890F8F4
:10181000290000F0010018B1214615A001F03CFCA0
:10182000002411480068B0F87A00401C0E4909688D
:10183000A1F87A000C480068B0F87C00401C0A4906
:101840000968A1F87C0008480068B0F87A005028C0
:1018500008DB002004490968A1F87A0002490968F8
:10186000A1F87C0000BF3CE67001002008000000E9
:1018700025630000082573202008000008200800C8
:101880000A0000002573000010B51448006800F03D
:10189000020010B112A001F0FFFB1048006800F038
:1018A000804088B10D48C01E007808B1FFF7D8FC11
:1018B0000A48001F007808B100F0D2FD0748801EDA
:1018C000008808B102F092FE0448006800F0004071
:1018D00010B109A001F0E0FB10BD00002CED00E00C
:1018E0006661696C656420766563746F72206665F5
:1018F0007463680A0000000064656275672065769D
:10190000656E740A0000000010B502A001F0C4FB6F
:10191000002010BD48656C6C6F2052542D546872C5
:10192000656164210A00000007E002210348FEF718
:1019300091FF4FF4FA6002F031FAF6E70008014037
:1019400010B50CA001F0A8FB0F4804680CE00222BF
:101950000EA12068FEF7EEFC00B904E00CA021689F
:1019600001F09AFB00BF08340A4800688442EED3B5
:10197000002010BD2D2D46756E6374696F6E204C6E
:101980006973743A0A000000600100205F5F000084
:1019900025730A00640100202DE9F04F8FB0002765
:1019A0000FF2C009082302AA04210AA800F096F841
:1019B0004FF010084A4641462CA001F06DFB40460E
:1019C00000F060FF32A001F067FB00BF0AA93846B3
:1019D00000F099F8074600253BE002A850F82500E2
:1019E000A0F11406FEF7C0FB8346307C20F0800097
:1019F0009DF83010884203D05846FEF7B9FB27E027
:101A00005846FEF7B5FB344604F11C0001F091FB8B
:101A1000A8B904F11C0001F094FB8246606A2346D9
:101A200010224146CDE9000A21A001F035FB04F166
:101A30001C0002F09FFD15A001F02EFB07E0606A7C
:101A400023461022414600901FA001F025FB00BF55
:101A50006D1C0E98A842C0DC002FB7D100200FB03B
:101A6000BDE8F08F6576656E74000000252D2A2E86
:101A7000732020202020207365742020202073757F
:101A80007370656E64207468726561640A0000009A
:101A900020202D2D2D2D2D2D2D2D2D2D202D2D2D9D
:101AA0002D2D2D2D2D2D2D2D2D2D2D0A000000003D
:101AB000252D2A2E2A7320203078253038782025AD
:101AC0003033643A00000000252D2A2E2A7320208E
:101AD00030782530387820300A0000002DE9F047B2
:101AE00004460D4616461F46284601F0DDFD814698
:101AF00009F10408C4F8008025726660E7600020E0
:101B00002061BDE8F0872DE9F84F07460C464FF0FD
:101B1000000A00202061E06808B1207A10B9002096
:101B2000BDE8F88FD4F800801FB945464FF0010A90
:101B300000E03D46FEF718FB0090BAF1000F0ED111
:101B4000A5F1140B9BF8100020F08000217A884248
:101B500004D00098FEF70CFB0020E1E700BF002650
:101B6000D4F804900BE02D68454501D1002507E02D
:101B7000761C49F8045BE068B04200D100E0F2E76F
:101B800000BF0098FEF7F4FA26612846C8E7000077
:101B90002DE9F04F91B000270FF2D409082304AAD1
:101BA00005210CA8FFF79AFF4FF010084A4641465E
:101BB00031A001F071FA404600F064FE37A001F058
:101BC0006BFA00BF0CA93846FFF79DFF07460025BA
:101BD00045E004A850F82500A0F11406FEF7C4FA69
:101BE0008346307C20F080009DF83810884203D076
:101BF0005846FEF7BDFA31E05846FEF7B9FA3446CA
:101C000004F11C0001F095FAB8B904F11C0001F0D0
:101C100098FA8246208D618D23461022CDE9010A73
:101C20000091414624A001F037FA04F11C0002F0B3
:101C3000A1FC27A001F030FA0FE004F11C0001F034
:101C400080FA8246208D618D23461022CDE9010A5B
:101C5000009141461FA001F01FFA00BF6D1C1098B3
:101C6000A842B6DC002FADD1002011B0BDE8F08F46
:101C70006D61696C626F7800252D2A2E7320656E68
:101C80007472792073697A652073757370656E64F8
:101C9000207468726561640A00000000202D2D2DFB
:101CA0002D20202D2D2D2D202D2D2D2D2D2D2D2D8B
:101CB0002D2D2D2D2D2D0A00252D2A2E2A73202580
:101CC0003034642020253034642025643A0000003C
:101CD0000A000000252D2A2E2A7320253034642086
:101CE00020253034642025640A00000010B508481F
:101CF000016808A001F0D0F90B4801680BA001F0C1
:101D0000CBF90F4801680FA001F0C6F910BD000023
:101D1000B0000020746F74616C206D656D6F727916
:101D20003A2025640A000000B40000207573656441
:101D3000206D656D6F7279203A2025640A000000DD
:101D4000B80000206D6178696D756D20616C6C6FF5
:101D50006361746564206D656D6F72793A202564E6
:101D60000A0000002DE9F04F8FB000270FF2CC09D8
:101D7000082302AA06210AA8FFF7B0FE4FF01008B8
:101D80004A46414630A001F087F9404600F07AFD0E
:101D900034A001F081F900BF0AA93846FFF7B3FE6D
:101DA0000746002541E002A850F82500A0F11406DE
:101DB000FEF7DAF98346307C20F080009DF8301081
:101DC000884203D05846FEF7D3F92DE05846FEF777
:101DD000CFF9344604F11C0001F0ABF9A8B904F1C5
:101DE0001C0001F0AEF98246A08D23461022414628
:101DF000CDE9000A21A001F04FF904F11C0002F026
:101E0000B9FB23A001F048F90DE004F11C0001F03A
:101E100098F98246A08D234610224146CDE9000A5A
:101E20001CA001F039F900BF6D1C0E98A842BADC65
:101E3000002FB1D100200FB0BDE8F08F6D73677136
:101E40007565756500000000252D2A2E7320656ECE
:101E50007472792073757370656E6420746872652E
:101E600061640A00202D2D2D2D20202D2D2D2D2DAE
:101E70002D2D2D2D2D2D2D2D2D0A0000252D2A2E19
:101E80002A732025303464202025643A00000000A5
:101E90000A000000252D2A2E2A73202530346420C4
:101EA0002025640A000000002DE9F04F91B00027C2
:101EB0000FF2A009082304AA03210CA8FFF70EFEC5
:101EC0004FF010084A46414624A001F0E5F840468C
:101ED00000F0D8FC2AA001F0DFF800BF0CA93846BA
:101EE000FFF711FE074600262AE004A850F8260056
:101EF000A0F11404FEF738F98346207C20F080001E
:101F00009DF83810884203D05846FEF731F916E0A4
:101F10005846FEF72DF9254605F11C0001F011F990
:101F2000824695F827001022A96A2B46CDE9020ABD
:101F3000CDE9002141461AA001F0AEF800BF761CA1
:101F40001098B042D1DC002FC8D1002011B0BDE8FC
:101F5000F08F00006D75746578000000252D2A2E25
:101F6000732020206F776E65722020686F6C64206C
:101F700073757370656E64207468726561640A00BD
:101F8000202D2D2D2D2D2D2D2D202D2D2D2D202DA8
:101F90002D2D2D2D2D2D2D2D2D2D2D2D2D0A0000EE
:101FA000252D2A2E2A7320252D382E2A7320253000
:101FB00034642025640A00002DE9F04F8FB000271B
:101FC0000FF2CC09082302AA02210AA8FFF786FD16
:101FD0004FF010084A46414630A001F05DF84046F7
:101FE00000F050FC34A001F057F800BF0AA93846B1
:101FF000FFF789FD0746002541E002A850F82500BB
:10200000A0F11406FEF7B0F88346307C20F0800083
:102010009DF83010884203D05846FEF7A9F82DE00D
:102020005846FEF7A5F8344604F11C0001F081F88B
:10203000A8B904F11C0001F084F88246A08C234664
:1020400010224146CDE9000A21A001F025F804F153
:102050001C0002F08FFA17A001F01EF80DE004F149
:102060001C0001F06EF88246A08C234610224146E7
:10207000CDE9000A1AA001F00FF800BF6D1C0E9800
:10208000A842BADC002FB1D100200FB0BDE8F08F1C
:1020900073656D6170686F7265000000252D2A2ED2
:1020A00073207620202073757370656E64207468C9
:1020B000726561640A000000202D2D2D202D2D2D2C
:1020C0002D2D2D2D2D2D2D2D2D2D2D0A0000000017
:1020D000252D2A2E2A7320253033642025643A00CA
:1020E000252D2A2E2A7320253033642025640A00EA
:1020F0002DE9F04FB5B04FF000090FF21C1B08237B
:1021000027AA01212FA8FFF7E9FC4FF0100A5A4631
:102110005146434800F0C0FF504600F0B3FB41A0D9
:1021200000F0BAFF00BF2FA94846FFF7ECFC81463C
:102130004FF0000865E027A850F82800A0F114052A
:10214000FEF712F83490287C20F080009DF8C4102F
:10215000884203D03498FEF70BF850E090222946CD
:1021600003A8FEF77BF83498FEF702F82C4694F8A3
:102170003D0023461022514600903AA000F08CFF0B
:1021800094F83C0000F00F06012E03D138A000F0B7
:1021900083FF15E0022E03D138A000F07DFF0FE091
:1021A0001EB939A000F078FF0AE0042E03D139A04F
:1021B00000F072FF04E0032E02D139A000F06CFFA2
:1021C000276B00E07F1C38782328FBD0D4E90C1063
:1021D000791A401A64214843616BB0FBF1F0029018
:1021E000A16B206DCDE90001636A206BC01A636B9F
:1021F000C1181A462DA0029B00F04EFF00BF08F147
:1022000001083398404596DCB9F1000F8BD10020CE
:1022100035B0BDE8F08F000074687265616400003D
:10222000144A0008202D2D2D20202D2D2D2D2D2D53
:102230002D202D2D2D2D2D2D2D2D2D2D202D2D2DE8
:102240002D2D2D2D2D2D2D20202D2D2D2D2D2D20E5
:10225000202D2D2D2D2D2D2D2D2D2D202D2D2D0AEB
:1022600000000000252D2A2E2A732025336420002B
:10227000207265616479202000000000207375736E
:1022800070656E640000000020696E697420202073
:102290000000000020636C6F7365202000000000C8
:1022A0002072756E6E696E67000000002030782520
:1022B000303878203078253038782020202025309C
:1022C00032642525202020307825303878202530AC
:1022D00033640A002DE9F04790B000270FF2B409EB
:1022E000082303AA0A210BA8FFF7F8FB4FF01008F8
:1022F0004A46414629A000F0CFFE404600F0C2FA0F
:1023000030A000F0C9FE00BF0BA93846FFF7FBFB69
:10231000074600262DE003A850F82600A0F114047B
:10232000FDF722FF8246207C20F080009DF83410CB
:10233000884203D05046FDF71BFF19E05046FDF7D9
:1023400017FF2546D5E90B012B461022CDE90001E8
:10235000414625A000F0A0FE687C00F0010018B105
:1023600027A000F099FE02E028A000F095FE00BF33
:10237000761C0F98B042CEDC002FC5D101F0F4FDE1
:102380000446214625A000F087FE002010B0BDE8DD
:10239000F087000074696D6572000000252D2A2EFB
:1023A000732020706572696F6469632020207469EE
:1023B0006D656F757420202020202020666C616779
:1023C0000A000000202D2D2D2D2D2D2D2D2D2D2001
:1023D0002D2D2D2D2D2D2D2D2D2D202D2D2D2D2D3A
:1023E0002D2D2D2D2D2D0A00252D2A2E2A7320303E
:1023F0007825303878203078253038782000000073
:102400006163746976617465640A00006465616380
:10241000746976617465640A000000006375727205
:10242000656E74207469636B3A3078253038780AA9
:1024300000000000FEF7CAFB07E001210348FEF799
:1024400009FA4FF47A7001F0A9FCF6E700080140A0
:1024500010B5044600F064FBFFF7ECFF10BD000070
:1024600010B51CA000F018FE1F4801781FA000F056
:1024700013FE1D48007800F0010010B121A000F00B
:102480000BFE1948007800F0020010B120A000F007
:1024900003FE1548007800F0080010B11FA000F0FE
:1024A000FBFD1148007800F0100010B11EA000F0F4
:1024B000F3FD0D48007800F0800030B10A480C3080
:1024C00001681CA000F0E8FD02E01EA000F0E4FDA1
:1024D00010BD00006D656D206D616E6167652066E1
:1024E00061756C743A0A000028ED00E05343425FC6
:1024F000434653525F4D4653523A30782530325856
:10250000200000004941434356494F4C2000000041
:102510004441434356494F4C200000004D554E5313
:10252000544B4552522000004D53544B45525220BB
:10253000000000005343422D3E4D4D41523A25309C
:1025400038580A000A00000008B50020009014E086
:102550004FF0FF33012269460848006800F095FFFC
:1025600004462CB99DF8001005A000F095FD03E08D
:10257000214608A000F090FD00BFE9E730000020F0
:102580000ABDD3CAD5B5BDCFFBCFA2A3BA25730A66
:10259000000000000ABDD3CAD5CFFBCFA2B4EDCE58
:1025A000F3A3ACB4EDCEF3B4FAC2EBA3BA30782502
:1025B0006C780A002DE9F04781460026002799F83B
:1025C000000028B90021084600F0A8F8BDE8F0870F
:1025D0001B48046827E006221AA12068FDF7AAFE1E
:1025E00000B11FE0206800F106084846FDF784FEB0
:1025F0008246524641464846FDF79CFE88B926B9B8
:1026000047463846FDF778FE06464146384601F013
:10261000DCFF0546B54200DA2E4641460BA000F02D
:102620003BFD00BF08340A4800688442D3D327B179
:1026300032463946484601F0F4F900BFC6E70000CB
:10264000600100205F5F636D645F000025730A0016
:102650006401002038B504460D4601E0641C6D1E7F
:1026600020782028FAD020780928F7D00DB900204A
:1026700038BD6A4629462046FEF742FD08B9009853
:10268000F6E7204600E0401C0178202902D00178BE
:102690000029F8D100210170214603A000F0FCFCC4
:1026A0004FF0FF30E4E7000025733A20636F6D6D53
:1026B000616E64206E6F7420666F756E642E0A0002
:1026C0002DE9F04106460D4600271048046815E044
:1026D00006220FA12068FDF72DFE00B10DE0216854
:1026E000881D2A463146FDF725FE28B9A81D216818
:1026F000085C08B9676805E000BF08340648006850
:102700008442E5D300BF3846BDE8F0816001002077
:102710005F5F636D645F00006401002070B5054673
:102720000E460EA000F0B8FC134804680DE0062227
:1027300012A12068FDF7FEFD00B105E02068811DB3
:1027400010A000F0A9FC00BF08340F4800688442C4
:10275000EDD30EA000F0A0FC002070BD52542D540B
:102760006872656164207368656C6C20636F6D6D61
:10277000616E64733A0A0000600100205F5F636D60
:10278000645F000025732000640100200A0000003F
:10279000012070472DE9F04782460E469046544688
:1027A0000025002755E003E000202070641C6D1C0C
:1027B0002078202802D02078092801D1B542F3D30F
:1027C000082F12D326A000F067FC4FF0000906E0A6
:1027D00058F829102AA000F05FFC09F10109B94559
:1027E000F6D326A000F058FC35E0B54200D332E025
:1027F000207822281CD1641C6D1C48F827407F1CBF
:1028000009E020785C2804D16078222801D1641C7A
:102810006D1C641C6D1C2078222801D0B542F0D3B9
:10282000B54200D317E000202070641C6D1C10E03E
:1028300048F827407F1C01E0641C6D1C207820288C
:1028400004D02078092801D0B542F5D3B54200D391
:1028500001E0B542A7D300BF3846BDE8F0870000CD
:10286000546F6F206D616E79206172677320212033
:102870005765206F6E6C79205573653A0A00000029
:102880002573200010B5044602E004A000F004FC0B
:10289000201EA4F10104F8D110BD00002D0000009D
:1028A00030B51A4C436824681919884215D04B88F2
:1028B0009BB9174B1B6899420FD0164B1B688B4274
:1028C00001D1144B18604B684360104B1B68C31A4E
:1028D0000E4D4C682D682C44A3600C4C8368246812
:1028E0001A19824211D053887BB90A4B1B68834264
:1028F00001D1084B1A6043685360044B1B68D31A1C
:10290000024D44682D682C44A36030BDA400002013
:10291000A8000020AC0000202DE9F04F86B00D4645
:102920009C46DDE9106401960F9B04F04008B8F165
:10293000000F02D0DFF8708101E0DFF87081CDF880
:10294000008004F01008B8F1000F01D024F0010459
:1029500004F00108B8F1000F02D04FF0300801E098
:102960004FF02008C246002704F00208B8F1000F1B
:1029700011D0002A02DA2D2752420CE004F004089C
:10298000B8F1000F01D02B2705E004F00808B8F1DA
:10299000000F00D02027002142B94FF0300B8846AD
:1029A000491C0DF1080909F808B01DE01AE0E146DC
:1029B000B9F10A0F08D14FF00A0BB2FBFBFE0BFB7B
:1029C0001E28B2FBFBF202E002F00F08120900BF62
:1029D000DDF8009019F808B08846491C0DF1080987
:1029E00009F808B0002AE2D1B14200DD0E469B1B77
:1029F00004F01108B8F1000F10D117B1002B00DD61
:102A00005B1E06E0A84203D24FF0200880F8008049
:102A1000401CB3F10008A3F10103F3DC27B1A84285
:102A200000D207705B1E401C04F01008B8F1000FC4
:102A30000AD104E0A84201D280F800A0401CB3F102
:102A40000008A3F10103F5DC06E0A84203D24FF031
:102A5000300880F80080401CB046761E8845F4DCC3
:102A600008E0A84205D20DF1080818F8018080F8A6
:102A70000080401CB1F10008A1F1010104DDDDF886
:102A80000480B8F1000FECD106E0A84203D24FF069
:102A9000200880F80080401CB3F10008A3F1010376
:102AA000F3DC06B0BDE8F08FBD480008AC48000874
:102AB0001CB514200A214FF400730022CDE9001048
:102AC000044905A001F091F80446204601F0B6F94A
:102AD0001CBD0000512400086D61696E00000000FB
:102AE00070B504460D4604FB05F000F047FB0646B2
:102AF0002EB104FB05F20021304600F054FC3046B4
:102B000070BD000010B5044C02E020688047241D11
:102B100002488442F9D310BD5C4A0008684A0008A4
:102B200010B5044C02E020688047241D024884420E
:102B3000F9D310BD684A0008704A000810B5FDF7C7
:102B400013FB044604480088401C00B20249088078
:102B50002046FDF70DFB10BD2C01002010B5FDF740
:102B600003FB04460C480088401E00B20A49088056
:102B70000846B0F9000000280ADC00200880204642
:102B8000FDF7F6FA0548006828B100F0D5FD02E02F
:102B90002046FDF7EDFA10BD2C0100203001002089
:102BA00070B5054605B970BD1D480068854203D360
:102BB0001C480068854200D3F5E7A5F10C044FF0EE
:102BC000FF31194800F091FE608818B12088B0F5F7
:102BD000F55F08D015A000F05FFA238862882146CF
:102BE00019A000F059FA002060804FF4F5502080C1
:102BF00021480068844201D21F4804600849606887
:102C00000968611A401A1D490968081A1B490860B9
:102C10002046FFF745FE044800F04AFE00BFC2E729
:102C2000A4000020A800002094250020746F2066D6
:102C30007265652061206261642064617461206254
:102C40006C6F636B3A0A00006D656D3A2030782531
:102C50003038782C207573656420666C61673A2083
:102C600025642C206D6167696320636F64653A2079
:102C70003078253034780A00AC000020B400002001
:102C800000487047780100200048704778210020F4
:102C900070B5FDF729FFFFF735FFFFF7F5FF044695
:102CA000FFF7EEFF0546214600F0D6FE70BD00009E
:102CB00010B54FF0FF3420210C48FEF796F801289C
:102CC00004D10A48FEF730F904460CE00821074811
:102CD000FEF78BF8012803D108210448FEF770F8AD
:102CE0000A2001F05BF8E0B210BD0000003801409E
:102CF00010B50446FFF722FF19E020780A280AD110
:102D00000D210E48FEF715F900BF40210B48FEF7D4
:102D10006CF80028F9D014F8011B0848FEF709F9EF
:102D200000BF40210548FEF760F80028F9D0207860
:102D30000028E2D1FFF712FF10BD0000003801406B
:102D400070B505462C1D3048006838B128462E491C
:102D500009688847064606B970BD00BF2BA0E16B25
:102D600000F09AF92DA0216A00F096F92FA0616A6F
:102D700000F092F931A0A16A00F08EF933A0E16A67
:102D800000F08AF935A0216800F086F937A0616863
:102D900000F082F939A0A16800F07EF93BA0E1685B
:102DA00000F07AF93DA0216900F076F93FA0616951
:102DB00000F072F941A0A16900F06EF943A0E16949
:102DC00000F06AF945A0216B00F066F947A0616B3D
:102DD00000F062F949A0A16B00F05EF9287800F0DC
:102DE000040048B101F002F80646314647A000F061
:102DF00053F9FFF77DF902E04CA000F04DF9FEF722
:102E000043FD00BFFEE700005C0100207073723AD2
:102E1000203078253038780A000000007230303ACF
:102E2000203078253038780A000000007230313ABE
:102E3000203078253038780A000000007230323AAD
:102E4000203078253038780A000000007230333A9C
:102E5000203078253038780A000000007230343A8B
:102E6000203078253038780A000000007230353A7A
:102E7000203078253038780A000000007230363A69
:102E8000203078253038780A000000007230373A58
:102E9000203078253038780A000000007230383A47
:102EA000203078253038780A000000007230393A36
:102EB000203078253038780A000000007231303A2E
:102EC000203078253038780A000000007231313A1D
:102ED000203078253038780A000000007231323A0C
:102EE000203078253038780A00000000206C723AD3
:102EF000203078253038780A000000002070633ACE
:102F0000203078253038780A00000000686172644B
:102F1000206661756C74206F6E20746872656164E0
:102F20003A2025730D0A0D0A0000000068617264E2
:102F3000206661756C74206F6E2068616E646C65CC
:102F4000720D0A0D0A000000F0B504460D46164643
:102F5000301D20F0070040380146002203E00C4FEE
:102F600041F82270521C102AF9D30D624FF0000C68
:102F7000C1F824C0C1F828C0C1F82CC0C1F830C0C5
:102F80004B638C634FF0807CC1F83CC0F0BD000007
:102F9000EFBEADDE10B5FDF7E7F804460448007853
:102FA000401C034908702046FDF7E2F810BD000000
:102FB000A000002010B5FDF7D7F8044604480078BB
:102FC000401E034908702046FDF7D2F810BD0000EE
:102FD000A000002070B504462068A0F11C0528461A
:102FE00000F0E6FE002070BD70B505460EE0FDF76E
:102FF000BBF806462868A0F11C044FF0FF30A06320
:10300000204600F0D5FE3046FDF7B2F8284600F025
:1030100080F80028EBD0002070BD2DE9F041054676
:103020000C469046204600F01FFFB8F1000F03D079
:10303000B8F1010F23D105E004F11C01284600F08E
:1030400061F81CE02E680FE0A6F11C0794F83D0023
:1030500097F83D10884206DA04F11C0107F11C00C4
:1030600000F050F802E03668AE42EDD100BFAE424B
:1030700004D104F11C01284600F044F800BF00BF51
:103080000020BDE8F08110B5044604F11C0000F0FA
:103090001BF8002010BD00000FB438B505A8009043
:1030A0007F210848009B049A01F092F804467F2C87
:1030B00000D97F240348FFF71BFE0020009038BC96
:1030C0005DF814FB142500204060006070474060EC
:1030D000006070474060006070470268516002689D
:1030E0000A600160486070470268516002680A60C7
:1030F0000160486070470268516002680A600160C0
:10310000486070474268116042684A6041600860E8
:10311000704701460868884201D1012070470020AD
:10312000FCE701460868884201D101207047002071
:10313000FCE701460868884201D101207047002061
:10314000FCE7014600200A4601E01268401C1368B3
:103150008B42FAD17047D0E900215160D0E90012CA
:103160001160406000607047D0E900215160D0E9F3
:103170000012116040600060704700002DE9F041CE
:10318000054615B90020BDE8F081E81C20F00305D4
:103190004E480068854201D90020F4E70C2D00D28A
:1031A0000C254FF0FF314A4800F09FFB494800686A
:1031B00049490968461A7EE04748006884196088D2
:1031C000002874D106F10C006168081AA8426ED379
:1031D00006F10C006168091A05F11800814230D32C
:1031E00006F10C0000EB05083B48006800EB0807FF
:1031F0004FF4F55038800020788060687860BE60B9
:10320000C4F80480012060803048796800680C3080
:10321000814205D03049786809680844C0F80880C0
:103220002E48016805F10C0008442C4908602C4820
:1032300000680968884219D228480068284908604F
:1032400014E001206080244960680968611A401A0E
:103250002249096808442149086021480068096832
:10326000884203D21D4800681D4908604FF4F5509C
:10327000208018480068844212D107E01548006891
:1032800040681549096808441249086011480068F7
:10329000408828B10F480068124909688842EDD17A
:1032A0000B4800F005FB04F10C006CE7FFE70A484F
:1032B00000683044466805480068401BB0423FF64D
:1032C0007BAF034800F0F4FA00205CE7B000002078
:1032D00094250020AC000020A4000020B4000020B1
:1032E000B8000020A80000202DE9F0410F46164646
:1032F00004463D463346102B28D305F0030C04F05A
:1033000003084CEA080CBCF1000F1FD121462A46E5
:1033100010E052F804CB41F804CB52F804CB41F84A
:1033200004CB52F804CB41F804CB52F804CB41F85B
:1033300004CB103B102BECD204E052F804CB41F844
:1033400004CB1B1F042BF8D20C46154603E015F8DE
:1033500001CB04F801CBB3F1000CA3F10103F6D1CA
:10336000BDE8F08170B50C46014623468B4210D271
:103370009D188D420DD91144134405E05D1E2B4666
:103380002E784D1E29462E70151EA2F10102F5D190
:1033900008E003E013F8015B01F8015B151EA2F1E0
:1033A0000102F7D170BDF0B50C460546E6B2042A1D
:1033B00015D300F0030797B9014646EA062343EA0E
:1033C000034304E008C108C108C108C1103A102A2B
:1033D000F8D201E008C1121F042AFBD20D4601E019
:1033E00005F8016B171EA2F10102F9D1F0BD2DE91C
:1033F000F0470746884691469A463946062000F02F
:1034000008F9044614B92046BDE8F08784F811A0F5
:103410002046FFF738FE08F1030020F00300208566
:10342000A4F82A90218D091D628D01FB02F0FFF79F
:10343000A5FE6062606A20B9204600F018F80020FE
:10344000E2E7002020636063A063002508E0208D90
:10345000001D616A05FB0016A06B3060A6636D1C41
:10346000608DA842F3DC0020A0852046CCE710B593
:10347000044604F11C00FFF7B7FD606AFFF790FBFC
:10348000204600F0F0F8002010BD2DE9FF4704466B
:103490000F4690464FF0000900F0A8FC0546FCF7E7
:1034A00063FE8246A08D48B9039838B95046FCF7B0
:1034B0005FFE6FF0010004B0BDE8F0873CE0002043
:1034C000A863039830B95046FCF752FE6FF0010034
:1034D000A863F0E7627C294604F11C00FFF79DFD1C
:1034E000039800280CDD00F03FFD814603AA00216F
:1034F00005F1540000F094FD05F1540000F0D4FDF6
:103500005046FCF735FE00F017F9A86B08B1A86B20
:10351000D1E7FCF729FE8246039800280CDD00F075
:1035200023FDA0EB09090398A0EB09000390039881
:10353000002801DA00200390A08D0028BFD0266B60
:1035400030682063606BB04201D100206063A08DC1
:10355000401EA0855046FCF70BFE208D404501D251
:10356000208D00E040460246311D3846FFF7BCFE84
:10357000FCF7FAFD8246A06B3060A6635046FCF76C
:10358000F7FD002097E72DE9F04104460F46164667
:10359000208DB04203D24FF0FF30BDE8F081FCF740
:1035A000E3FD8046A56B2DB94046FCF7E1FD6FF0C9
:1035B0000200F2E72868A0634046FCF7D9FD00202E
:1035C000286032463946281DFFF78EFEFCF7CCFDF9
:1035D0008046606B08B1606B05606563206B00B965
:1035E0002563A08D401CA08504F11C00FFF791FD10
:1035F00050B904F11C00FFF7EDFC4046FCF7B8FDA4
:1036000000F09AF80020C8E74046FCF7B1FD002022
:10361000C3E72DE9F04106460F46304600F044F876
:103620000546E868FFF7AAFD044614B90020BDE886
:10363000F08100212046EA68FFF7B5FE26740020DD
:10364000607410223946204600F0EBF9FCF78CFD3F
:10365000804604F11401281DFFF73FFD4046FCF7AA
:1036600087FD2046E3E770B5044600202074FCF790
:103670007BFD054604F11400FFF76DFD2846FCF7BD
:1036800077FD2046FFF78CFA70BD70B50446002028
:103690002074FCF769FD054604F11400FFF75BFD9B
:1036A0002846FCF765FD70BD024600210AE0074888
:1036B00000EB01100078904203D1044800EB0110A8
:1036C0007047491C0729F2DB0020F9E7BC00002005
:1036D0002DE9F04704460D46904600262846FFF7A0
:1036E000E3FF0746FFF72AFA7E6802E0A6F114001E
:1036F0003668381D8642F9D1FFF730FA45F0800070
:10370000207410224146204600F08BF9FCF72CFD76
:10371000814604F11401381DFFF7DFFC4846FCF731
:1037200027FDBDE8F0870146087C00F0800008B165
:10373000012070470020FCE72DE9F041FCF714FD63
:1037400007461848008838BB17480068FDF798FC02
:10375000461E164850F83600A0F11C0414480068B4
:10376000844218D013490E7011480568046012484D
:10377000007850B904F1240105F12400FCF7FBFCAA
:103780003846FCF7F5FCBDE8F08104F1240105F1B1
:103790002400FCF7F0FC00BF3846FCF7E9FC00BF52
:1037A000F1E700002C01002038010020BC2500209A
:1037B0003001002034010020A000002070B5044634
:1037C000FCF7D2FC054614F83C0F20F00F0040F047
:1037D0000100207062783C3C0A4B03EBC20004F10C
:1037E0001C014268116042684A604160086000BF85
:1037F0000549206C09680843034908602846FCF71E
:10380000B7FC70BDBC2500203801002070B504460F
:10381000FCF7AAFC054604F11C00D0E90021516028
:10382000D0E9001211604060006000BF94F83D10C4
:10383000094A02EBC1000168814201D1012100E087
:10384000002129B10548216C0068884303490860BC
:103850002846FCF78DFC70BDBC25002038010020F7
:103860002DE9F04105460E46174629460220FFF78E
:10387000D0FE044614B92046BDE8F0812046FFF78B
:1038800002FCA68467742046F6E72DE9F041044661
:103890000D4616461F462A4602212046FFF718FF0E
:1038A0002046FFF7F0FBA68467740020BDE8F08196
:1038B00070B504460025FCF757FC064604F11C00D1
:1038C000FFF727FC28B904F11C00FFF783FB012553
:1038D00002E0A08C401CA0843046FCF749FC012D7E
:1038E00001D1FFF729FF002070BD73B50546FCF735
:1038F0003BFC0646A88C002806DDA88C401EA88448
:103900003046FCF735FC28E0019828B93046FCF732
:103910002FFC6FF001007CBD00F068FA0446002027
:10392000A0636A7C214605F11C00FFF776FB019835
:10393000002809DD01AA002104F1540000F070FB09
:1039400004F1540000F0B0FB3046FCF711FCFFF727
:10395000F3FEA06B08B1A06BDDE70020DBE7000001
:1039600008B509A0FFF798FB0AA0FFF795FB12A086
:10397000032301221946009012A0FFF78DFB19A026
:10398000FFF78AFB08BD00000A205C207C202F0A7C
:10399000000000002D205254202D202020202054F3
:1039A0006872656164204F7065726174696E67202A
:1039B00053797374656D0A00417567203237203280
:1039C00030323400202F207C205C20202020202535
:1039D000642E25642E2564206275696C642025732D
:1039E0000A0000002032303036202D2032303139AC
:1039F00020436F70797269676874206279207274ED
:103A00002D746872656164207465616D0A00000040
:103A100001460A4600E0521C10780028FBD1501ADB
:103A2000704770B50346A2B118460C4600BF14F8A3
:103A3000016B00F8016B3EB902E0002500F8015B64
:103A4000551E2A1EF9D102E0551E2A1EEFD100BFD5
:103A500000BF184670BD00002DE9F04105460E4636
:103A6000E81C20F0030726F00308B8F1180F09D965
:103A7000A8F11800B84205D3A8EB070018381E4972
:103A8000086006E0324629461CA0FFF705FBBDE8AA
:103A9000F0812948076004684FF4F55020801648EB
:103AA00000680C3060600020A0606080224960687F
:103AB00009680844214908604FF4F55009680880F6
:103AC00001201E49096848800B4800680C301B49DA
:103AD00009684860084800680C301849096888601F
:103AE0000023012216A11848FFF7CFFE12480068F4
:103AF0001649086000BFCAE7B00000206D656D2060
:103B0000696E69742C206572726F722062656769D4
:103B10006E206164647265737320307825782C2080
:103B2000616E6420656E64206164647265737320E5
:103B3000307825780A000000A4000020A8000020AA
:103B4000686561700000000094250020AC00002032
:103B500010B500200B490880002405E00A4901EB5C
:103B6000C400FFF7B4FA641C202CF7DB1F200749C0
:103B70000870002006490860064908600648FFF7FB
:103B8000A6FA10BD2C010020BC2500203401002025
:103B900030010020380100203C01002070B50848A9
:103BA0000068FDF76DFA451E064850F83500A0F193
:103BB0001C040548046004F12400FCF70AFB70BDF6
:103BC00038010020BC2500203001002010B5002461
:103BD00005E0044901EBC400FFF77CFA641C002CEB
:103BE000F7D010BD4401002070472DE9FF5F064665
:103BF0000F4690461D46DDE90EAB31460120FFF72A
:103C000008FD8146B9F1000F03D1002004B0BDE8E2
:103C1000F09F2846FFF7B2FA044624B94846FFF75A
:103C200022FD0020F2E743463A46314648468DE8F9
:103C3000300CFDF79BFA4846E8E7000070B51348E2
:103C40000468FCF791FA05462046FFF7DFFD0420E3
:103C500084F83C0004F1540000F0FEF92046FFF720
:103C600062FD012806D1D4F8880018B92046FFF774
:103C70000CFD04E004F11C010548FFF735FA284665
:103C8000FCF776FAFFF758FD70BD00003001002008
:103C90003C01002001E000F001F8FCE770B53CE0D9
:103CA000FCF762FA0546FDF721FA40B31E480068AA
:103CB000A0F11C0404F11C00D0E900215160D0E9FE
:103CC000001211604060006000BFFEF737FFD4F8BB
:103CD000880018B12046D4F8881088472046FFF79E
:103CE00022FD012808D12046FFF7CFFCFEF736FF62
:103CF0002846FCF73DFA70BDFEF730FF03E028468A
:103D0000FCF736FAF7E72846FCF732FA206BFEF7A5
:103D100047FF2046FFF7A7FC00BFFDF7E7F90028A3
:103D2000BED100BFE7E700003C0100201FB5202006
:103D30001F21C200074BCDE90032CDE9021000235C
:103D4000054A06A1074800F00FF8064800F076F88B
:103D50001FBD000014240020953C00087469646CA9
:103D600065000000842300202DE9FF5F05460C4616
:103D700016461F46DDE910ABDDE90E89224601211A
:103D80002846FFF7A5FC3B463246214628468DE8EB
:103D9000000FFDF7EBF904B0BDE8F09F70B50446E5
:103DA000204600F0C5F80546284600F025F870BD0D
:103DB00070B5044694F83C0000F00F00022802D0D1
:103DC0004FF0FF3070BDFCF7CFF9054604F11C0041
:103DD000FFF7CAF904F1540000F0E2F92846FCF7B5
:103DE000C7F92046FFF7EAFC0020EBE7014800682E
:103DF000704700003001002031B5FCF7B5F90546E9
:103E00000D480468204600F02FF86A46002104F1AE
:103E1000540000F005F904F1540000F045F928467B
:103E2000FCF7A6F9FFF788FCA06B801C08B90020FE
:103E3000A063002038BD00003001002010B504460A
:103E40003C34A07860706178012088406060022076
:103E500004F83C092046FFF7ABFFFFF7C7FF08B1A6
:103E6000FFF76AFC002010BD70B5044694F83C00D2
:103E700000F00F00012802D04FF0FF3070BDFCF7BA
:103E800073F9054694F83C0020F00F0040F0020062
:103E900084F83C002046FFF7B9FC04F1540000F020
:103EA0007FF92846FCF764F90020E7E770B504467F
:103EB00025466FF00100A86305F11C00FFF754F9D7
:103EC0002846FFF77BFCFFF737FC70BD70B5FCF7A9
:103ED0004BF905461448046894F83C0000F00F00C4
:103EE00001281CD1D4E90710814218D004F11C002C
:103EF000FFF73AF994F83D200C4B03EBC20004F1B4
:103F00001C014268116042684A604160086000BF5D
:103F10002846FCF72DF9FFF70FFC002070BD28465E
:103F2000FCF726F90020F9E730010020BC2500202D
:103F30000146002902DA4FF0FF3014E04FF47A72A4
:103F400091FBF2F24FF47A7302FB03F01A4691FBF5
:103F5000F2F302FB13124FF47A735A4302F2E73280
:103F600092FBF3F21044704701480068704700006C
:103F70009C00002010B50A480068401C08490860F1
:103F8000FFF734FF0446206D401E2065206D18B9F0
:103F9000E06C2065FFF79AFF00F004F810BD000008
:103FA0009C00002070B5FFF7DFFF0546FCF7DCF84A
:103FB000064628E019480068A0F11C04206B281A66
:103FC0006FF0004188421DD22046FDF732F9D4E956
:103FD00009108847FFF7C8FF0546607C00F0020023
:103FE00058B1607C00F0010038B1607C20F0010025
:103FF0006074204600F058F805E0607C20F0010075
:10400000607400E004E00548FFF78BF80028D1D089
:1040100000BF3046FCF7ACF870BD00004401002042
:10402000034649B1012904D0022908D0032910D13F
:104030000AE0D86A10600CE01068D86209E0587C89
:1040400020F00200587404E0587C40F002005874DC
:1040500000BF00BF0020704770B50446FCF784F82D
:1040600005462046FDF7E5F82846FCF781F820468E
:10407000FFF70BFB002070BD2DE9F84307460C4607
:1040800015461E46DDE9088922460A213846FFF713
:104090001FFB4346324629463846CDF80090FDF7CF
:1040A000A7F8BDE8F88300002DE9F8430546FCF7C2
:1040B0005BF880462846FDF7BCF8687C20F00100DC
:1040C00068744046FCF754F8FFF74EFFE96A08446D
:1040D0002863FCF749F880462F4F009700242AE018
:1040E00019E05DF8242011681C2202EBC402881A32
:1040F000026B2B6BD21A00D108E0026B2B6BD21A29
:104100006FF000439A4200D20CE000BF5DF824003B
:1041100000684DF824005DF8240007EBC4014968ED
:104120008842DED100BF2CB15DF824000830611C4C
:104130004DF82100641C002CD2D018480068401CA7
:10414000164908600846066805F11C010098FEF74C
:10415000D2FF022412E006F0030060B9C4F10103AB
:1041600005F11C0202EBC301C4F101025DF822005B
:10417000FEF7C1FF00E003E0B608641C012CEAD999
:1041800000BF687C40F0010068744046FBF7F0FF18
:104190000020BDE8F8830000440100204C0100200D
:1041A00070B50446607C00F0010010B94FF0FF309C
:1041B00070BDFBF7D9FF05462046FDF73AF82846C3
:1041C000FBF7D6FF607C20F0010060740020EFE771
:1041D0002DE9FF4F89B0804644460A9808EB000657
:1041E000464504D24FF0FF36A6EB08000A906FE177
:1041F0000B980078252806D0B44202D20B9800789C
:104200002070641C61E1002526E00B98401C0B9097
:104210000B9800782D2802D145F010051CE00B9872
:1042200000782B2802D145F0040515E00B980078A2
:10423000202802D145F008050EE00B9800782328CD
:1042400002D145F0200507E00B980078302802D114
:1042500045F0010500E000E0D7E700BF4FF0FF3771
:104260000B98007830380A2804D20BA800F09AF98D
:1042700007460EE00B9800782A280AD10B98401CBC
:104280000B900C9880C80C90002F02DA7F4245F00A
:1042900010054FF0FF390B9800782E281CD10B9891
:1042A000401C0B900B98007830380A2804D20BA8D9
:1042B00000F078F981460AE00B9800782A2806D1A8
:1042C0000B98401C0B900C9850F8049B0C90B9F183
:1042D000000F01DA4FF00009002004900B980078DD
:1042E000682803D00B9800786C2805D10B980078CB
:1042F00004900B98401C0B900A2005900B980078B6
:104300006F2875D00CDC632813D004DC252870D00E
:1043100058286FD18DE064286DD06928F9D18FE0DD
:1043200070286AD0732825D0752878D07828F0D1E5
:1043300082E005F0100040B904E0B44201D2202030
:104340002070641C781E071EF7DC0C9810F8041B04
:104350000C90C8B20790B44201D207982070641C38
:1043600004E0B44201D220202070641C781E071E95
:10437000F7DCAAE00C98006806900C98001D0C90E1
:10438000069808B95CA006900698FFF741FB8346A3
:10439000B9F1000F02DDCB4500DDCB4605F0100082
:1043A00048B904E0B44201D220202070641C384691
:1043B0007F1E5845F6DC002008900BE0B44202D284
:1043C000069800782070641C0698401C0690089897
:1043D000401C089008985845F0DB04E0B44201D234
:1043E00020202070641C38467F1E5845F6DC6CE0A7
:1043F0001CE015E028E022E0FFE7781C10B9082750
:1044000045F00105CDE9007902950C9804C8102308
:1044100031460C902046FEF77FFA044655E012E044
:10442000B44201D225202070641C4EE00820059083
:104430001DE045F0400500BF1020059017E000BFCB
:1044400045F0020500BF12E0B44201D225202070E1
:10445000641C0B98007830B1B44202D20B980078FB
:104460002070641C02E00B98401E0B902DE000BFF2
:1044700004986C2807D10C9850F804AB0C9005F008
:104480000200B8B116E0049868280BD10C9830F8F7
:10449000041B1FFA81FA0C9005F0020050B10FFACC
:1044A0008AFA07E00C9850F804AB0C9005F0020073
:1044B00000B100BFCDE90079029552463146204651
:1044C000059BFEF729FA044600BF0B98401C0B9091
:1044D0000B98007800287FF48BAE0A9838B1B4426C
:1044E00002D20020207002E0002006F8010CA4EBAC
:1044F00008000DB0BDE8F08F284E554C4C29000047
:10450000002070470020704700207047002070474F
:1045100010B5FBF729FEFEF7BBFBFFF721FAFFF70B
:1045200055FBFFF715FBFEF7C3FAFFF75DFBFFF73F
:10453000FDFBFFF733FB002010BD000070B5044603
:1045400009A0FEF7A9FDFEF723F9012802D12046B4
:10455000FEF730F8FCF710FF05462246294603A077
:10456000FEF79AFD70BD00000A0000002573257358
:104570000000000070B5044625680CE0A5F11C069B
:10458000314606A0FEF788FD2868A04202D004A0AC
:10459000FEF782FD2D68A542F0D170BD25730000A5
:1045A0002F0000000146002009E00B685A1C0A6039
:1045B0001A7800EB800302EB4302A2F130000A6894
:1045C0001278303A0A2AF0D3704710B503461A46DB
:1045D00001E0521C491C107828B1087818B11078F5
:1045E0000C78A042F5D0D01A10BD000010B51EA066
:1045F000FEF752FD2048018820A0FEF74DFD1E4821
:10460000008800F0010010B122A0FEF745FD1A4815
:10461000008800F0020010B121A0FEF73DFD164811
:10462000008800F0040010B120A0FEF735FD12480C
:10463000008800F0080010B11EA0FEF72DFD0E4806
:10464000008800F4807010B11CA0FEF725FD0A4818
:10465000008800F4007010B11BA0FEF71DFD05A03E
:10466000FEF71AFD10BD0000757361676520666175
:10467000756C743A0A0000002AED00E05343425F73
:10468000434653525F554653523A3078253032589C
:1046900020000000554E444546494E5354522000D8
:1046A000494E56535441544520000000494E56503F
:1046B000432000004E4F435020000000554E414C17
:1046C00049474E454420000044495642595A4552F4
:1046D0004F20000022E04FF0FF3111480068FFF743
:1046E00004F90446CCB90F490FA0FEF7D5FC16A17A
:1046F0000C48FBF7E3FD08B1FBF792FE14A1094853
:10470000FBF7DCFD08B1FBF781FE4FF48071054833
:10471000FBF7BDFD00201049088000BFDBE700006B
:104720002C000020782100200A5573617274322019
:10473000686173207265636576696564206461747D
:10474000613A2025732E0A00426565704F6E0000A5
:10475000426565704F6666009800002010B5FFF74F
:10476000FFF8002010BD5F5F636D645F4265657098
:104770004F6E005F5F636D645F426565704F666694
:10478000005F5F636D645F476574436869704944A7
:10479000005F5F636D645F47657443686970466C72
:1047A000617368436170616369747900000001009E
:1047B00002000100030001000200010004000100EA
:1047C00002000100030001000200010005000100D9
:1047D00002000100030001000200010004000100CA
:1047E00002000100030001000200010006000100B8
:1047F00002000100030001000200010004000100AA
:104800000200010003000100020001000500010098
:104810000200010003000100020001000400010089
:104820000200010003000100020001000700010076
:104830000200010003000100020001000400010069
:104840000200010003000100020001000500010058
:104850000200010003000100020001000400010049
:104860000200010003000100020001000600010037
:104870000200010003000100020001000400010029
:104880000200010003000100020001000500010018
:104890000200010003000100020001000400010009
:1048A0000200010003000100020001003031323338
:1048B00034353637383961626364656600303132C9
:1048C00033343536373839414243444546006C6904
:1048D00073745F6D656D0068656C6C6F00766572F2
:1048E00073696F6E005F5F636D645F766572736995
:1048F0006F6E006C6973745F746872656164005FE9
:104900005F636D645F6C6973745F74687265616422
:10491000006C6973745F73656D005F5F636D645FE6
:104920006C6973745F73656D006C6973745F657631
:10493000656E74005F5F636D645F6C6973745F655F
:1049400076656E74006C6973745F6D75746578005C
:104950005F5F636D645F6C6973745F6D75746578B8
:10496000006C6973745F6D61696C626F78005F5F82
:10497000636D645F6C6973745F6D61696C626F789D
:10498000006C6973745F6D73677175657565005F41
:104990005F636D645F6C6973745F6D736771756578
:1049A0007565006C6973745F74696D6572005F5F33
:1049B000636D645F6C6973745F74696D6572006CBC
:1049C000697374005F5F636D645F68656C70005F3E
:1049D0005F636D645F7073005F5F636D645F6672D9
:1049E00065650000200000006D73675F70726F6383
:1049F0006573735F746872656164000075736172DA
:104A000074325F726563765F74687265616400001A
:104A10006C656400252D2A2E732070726920207326
:104A20007461747573202020202020737020202052
:104A30002020737461636B2073697A65206D6178DF
:104A40002075736564206C656674207469636B20DF
:104A5000206572726F720A000D4500080545000856
:104A6000D9030008AD050008014500082514000819
:104A7000094500086647000821040008734700083C
:104A80000D04000881470008DD0700089147000871
:104A9000A1070008CE480008ED1C0008D748000810
:104AA00009190008DD4800085D470008E5480008CE
:104AB0005D470008F3480008F1200008FF4800089F
:104AC000F120000811490008B91F00081A49000820
:104AD000B91F00082949000899190008344900083D
:104AE0009919000845490008A91E00085049000806
:104AF000A91E000861490008911B00086E490008C2
:104B0000911B000881490008651D00088F490008B5
:104B1000651D0008A3490008D5220008AE49000819
:104B2000D5220008BF49000841190008C4490008FF
:104B30001D270008CF4900086B130008D84900085A
:104B40005D130008644B000800000020780100009D
:104B500078030008E84B000878010020C82900000D
:104B6000DC1000081184A24A04680901020304064B
:104B70000708090C691005100204060813104A14EE
:104B8000082919491822013205320A13FC495C0828
:104B9000D546183A020339181AE8180B1049251897
:104BA0001AE418013819771122C02A20044A9057B4
:104BB000111AD00C2904322832031AE00C290432CD
:104BC0002C29E91AF00C2904292029B419452A2096
:104BD0000432382A06D8190C29045A3CA01A200C91
:084BE0002904024F340000001B
:0400000508000131BD
:00000001FF
